:10540000A3EF76F0120012000FEF2AF01200020054
:10541000000000000000000018EF2AF01200DACFB0
:10542000E4FFE2CFDAFFE652E552E5CFDAFF110002
:10543000D8CFE4FFE0CFE4FFE46EDACFE4FFE2CFC1
:10544000DAFFE652E552E5CFDAFFE550E5CFE0FFBF
:10545000E5CFD8FF10000500E2FF0100A20E00001A
:105460000500000011540000970E00000600000027
:105470004EEE0000F00000000F000000C8ED00003C
:10548000000E0000860000000E540000AA0E00006E
:1054900003000000D9CFE6FFE1CFD9FF020EE126DD
:1054A000FD0EDBCFDEFFDBCFDDFFF90EDBCF00F043
:1054B000DB06FA0EDBCF01F001E2DB060050011043
:1054C0000CE0DFCFE9FFDF2A010EDBCFEAFF01E3CB
:1054D000DB2AFB0EDBCFEFFFE8D7020EE15C02E236
:1054E000E16AE552E16EE552E7CFD9FF1200D9CF6C
:1054F000E6FFE1CFD9FF060EE126FD0EDBCFDEFF92
:10550000DBCFDDFFFB0EDBCF26F0FC0EDBCF27F081
:10551000020E26C0DBFF030E27C0DBFF040EDB6A92
:10552000050EDB6AF90EDBCF00F0DB06FA0EDBCFEF
:1055300001F001E2DB060050011023E0DFCFE9FFBC
:10554000DF2A010EDBCFEAFF01E3DB2AEFCF04F015
:10555000020EDBCFE9FFDB2A030EDBCFEAFF01E31C
:10556000DB2AEF50045C026E036A02BE0368040E7D
:1055700002C0DBFF050E03C0DBFF0250031001E198
:10558000D1D7040EDBCF00F0050EDBCF01F000C059
:10559000F3FF01C0F4FF060EE15C03E200D0E16A14
:1055A000E552E16EE552E7CFD9FF1200D9CFE6FF11
:1055B000E1CFD9FF0C0EE1260A0EADCEDBFF0B0EBC
:1055C000AECEDBFFFD0EDBCF00F0FE0EDBCF01F039
:1055D000020E005C000E015819E3FD0EDBCF02F055
:1055E000FE0EDBCF03F00A0EDBCFE9FF0B0EDBCFA5
:1055F000EAFF060EE926000EEA22EECF04F0EFCF16
:1056000005F00450025C0550035804E3010EF36EEC
:10561000F46A6ED00A0EDBCFE9FF0B0EDBCFEAFF98
:10562000EF50020A01E060D0020EE66EE66AFD0E5F
:10563000DBCF00F0FE0EDBCF01F00001016A010EAE
:10564000D89000360136E806FBE100C0E6FF01C055
:10565000E6FFFD0EDBCF02F0FE0EDBCF03F0080EFF
:105660000F0B05E0D89003320232E806FBE1046A32
:10567000056A0A0EDBCFE9FF0B0EDBCFEAFF080E4F
:10568000E926000EEA22EE500226EE500322EE50EA
:105690000422EE50052202C0E6FF03C0E6FF04C06C
:1056A000E6FF05C0E6FFD950060FE66E000EDA20D1
:1056B000E66E74EC5BF0066E0A0EE15E06500009C1
:1056C00001E012D0070EDBCF02F002C003F0026A45
:1056D000060EDB5000010210006E03C001F000C096
:1056E000F3FF01C0F4FF04D0010EF36EF46A00D0A2
:1056F0000C0EE15C02E2E16AE552E16EE552E7CFB1
:10570000D9FF1200D9CFE6FFE1CFD9FF020EE12683
:10571000ADCEDEFFAECEDDFFD950FD0FE96EFF0E40
:10572000DA20EA6E020EEE5E000EED5AFD0EDBCFC1
:1057300000F0FE0EDBCF01F0DECFE9FFDDCFEAFFA8
:10574000060EE926000EEA22EECF02F0EFCF03F0BC
:10575000020E025E000E035A0250005C0350015814
:1057600005E3246A256A266A276A4DD0DECFE9FF61
:10577000DDCFEAFF100EE926000EEA22EECF0CF094
:10578000EECF0DF0EECF0EF0EFCF0FF0DECFE9FF52
:10579000DDCFEAFF020EE926000EEA22EFCF08F085
:1057A000096A0A6A0B6AFD0EDBCF04F0FE0EDBCF3E
:1057B00005F0066A076A04C024F005C025F006C09B
:1057C00026F007C027F008C029F009C02AF00AC057
:1057D0002BF00BC02CF07AEC75F0205000010C245B
:1057E000006E21500D20016E22500E20026E2350BB
:1057F0000F20036E00C024F001C025F002C026F087
:1058000003C027F000D0020EE15C02E2E16AE5523B
:10581000E16EE552E7CFD9FF1200D9CFE6FFE1CF25
:10582000D9FF040EE126020EADCEDBFF030EAECE95
:10583000DBFFFD0EDBCFE9FFFE0EDBCFEAFFEE6AFA
:10584000ED6AFD0EDBCFE9FFFE0EDBCFEAFF040EB3
:10585000E926000EEA22EECFDEFFEDCFDDFFD9CF45
:10586000E9FFDACFEAFF010EEE1801E1ED5017E093
:10587000DECF00F0DDCF01F0020EDBCFE9FF030E3B
:10588000DBCFEAFF060EE926000EEA22EECF02F099
:10589000EFCF03F00250005C0350015802E3010E09
:1058A00059D00ED0020EDBCFE9FF030EDBCFEAFFAB
:1058B0000C0EE926000EEA22EECFDEFFEDCFDDFF73
:1058C000FD0EDBCFE9FFFE0EDBCFEAFF060EE92679
:1058D000000EEA22DECFEEFFDDCFEDFFD9CFE9FFEC
:1058E000DACFEAFFEE50ED1010E0DECFE6FFDDCFBD
:1058F000E6FF08DFE552E55224C000F025C001F0C4
:1059000026C002F027C003F012D0020EDBCFE9FF61
:10591000030EDBCFEAFF0C0EE926000EEA22EECFE3
:1059200000F0EECF01F0EECF02F0EFCF03F0FD0E6E
:10593000DBCFE9FFFE0EDBCFEAFF080EE926000E03
:10594000EA2200C0EEFF01C0EEFF02C0EEFF03C07E
:10595000EEFF00D0006E040EE15C02E2E16AE55267
:10596000E16E0050E552E7CFD9FF1200D9CFE6FF34
:10597000E1CFD9FF060EE126040EADCEDBFF050E0A
:10598000AECEDBFFFD0EDBCFE9FFFE0EDBCFEAFF85
:10599000EECF00F0EFCF01F0010E0026000E012245
:1059A000020E00C0DBFF030E01C0DBFFD950020F67
:1059B000E96EDACFEAFFEE50ED1017E0FD0EDBCF17
:1059C000E9FFFE0EDBCFEAFF080EE926000EEA2211
:1059D000EECF00F0EECF01F0EECF02F0EFCF03F00C
:1059E000005001100210031002E1030EDCD0020E81
:1059F000DBCF00F0030EDBCF01F00001016A0F0ED8
:105A000000160050011001E0C0D0FD0EDBCFE9FF11
:105A1000FE0EDBCFEAFF080EE926000EEA22EE2A90
:105A2000EE22EE22EE22FD0EDBCFE9FFFE0EDBCFF3
:105A3000EAFF060EE926000EEA22EE50ED101CE108
:105A4000020EDBCF00F0030EDBCF01F0040EDBCF44
:105A5000E9FF050EDBCFEAFF040EE926000EEA227D
:105A6000EECF02F0EFCF03F00250005C035001587C
:105A700002E3030E98D089D0020EDBCF02F0030EB2
:105A8000DBCF03F0040E0F0B05E0D8900332023297
:105A9000E806FBE1040EDBCFE9FF050EDBCFEAFFF2
:105AA000020EE926000EEA22EF0400010214006E45
:105AB000016A0050011069E1FD0EDBCFE9FFFE0E27
:105AC000DBCFEAFF060EE926000EEA22EECFE6FF64
:105AD000EFCFE6FF6BDDE552E552F3CFDEFFF4CF0B
:105AE000DDFFD9CFE9FFDACFEAFF010ED880EE540F
:105AF000000EED5402E3010E56D0DECF00F0DDCFF4
:105B000001F0040EDBCFE9FF050EDBCFEAFF060E46
:105B1000E926000EEA22EECF02F0EFCF03F00250AA
:105B2000005C0350015802E3030E3DD0FD0EDBCFB5
:105B3000E9FFFE0EDBCFEAFF060EE926000EEA22A1
:105B4000DECFEEFFDDCFEDFFDECFE6FFDDCFE6FF00
:105B5000D9DDE552E55224C000F025C001F026C091
:105B600002F027C003F0FD0EDBCFE9FFFE0EDBCF16
:105B7000EAFF080EE926000EEA2200C0EEFF01C08F
:105B8000EEFF02C0EEFF03C0EEFFFD0EDBCFE9FF2C
:105B9000FE0EDBCFEAFF020EDBCFEEFF030EDBCF04
:105BA000EDFF000E00D0006E060EE15C02E2E16A3D
:105BB000E552E16E0050E552E7CFD9FF1200D9CF90
:105BC000E6FFE1CFD9FF020EE126FD0EDBCFE6FFB7
:105BD000FE0EDBCFE6FF21DEE552E552DF6EDF5041
:105BE00002E0DF5092D0200EE66EE66AFD0EDBCFBB
:105BF000E9FFFE0EDBCFEAFFEECF00F0EFCF01F0C2
:105C00000001016A0F0E0016050ED890003601360D
:105C1000E806FBE100C0E6FF01C0E6FFFD0EDBCFBA
:105C2000E9FFFE0EDBCFEAFF080EE926000EEA22AE
:105C3000EECFE6FFEECFE6FFEECFE6FFEFCFE6FFDB
:105C4000FB0EDBCFE6FFFC0EDBCFE6FF74EC5BF078
:105C5000026E0A0EE15E0250000902E0010E01D060
:105C6000000EDF6EDF5001E04ED0FB0EDBCFE9FF10
:105C7000FC0EDBCFEAFF010EEFCFDBFFDB5003E1D1
:105C8000030EDF6E40D00B0EE76EFB0EDBCFE9FF9D
:105C9000FC0EDBCFEAFFE750E926000EEA22EF50C8
:105CA000080B24E10B0EE66EE66AFD0EDBCFE9FF82
:105CB000FE0EDBCFEAFF020EE926000EEA22EECF4F
:105CC000E6FFEFCFE6FFFB0EDBCFE6FFFC0EDBCF00
:105CD000E6FF0DDC026E060EE15E0250F3CF00F02F
:105CE000F4CF01F00050011001E10DD0FD0EDBCF2B
:105CF000E6FFFE0EDBCFE6FF39DEE552E552DF6E52
:105D0000DF5001E170D7DF5000D0006E020EE15C81
:105D100002E2E16AE552E16E0050E552E7CFD9FFB9
:105D20001200D9CFE6FFE1CFD9FF090EE126FD0E23
:105D3000DBCFE9FFFE0EDBCFEAFF020EE926000E05
:105D4000EA22050EEECFDBFF060EEDCFDBFF0B0EDA
:105D5000E66EE66A200EE66EE66A050EDBCFE6FF2B
:105D6000060EDBCFE6FF4AEC2AF0006E060EE15E7F
:105D70000050040EDB6A030EDB6A080EF36E020E9F
:105D8000F3CFDBFFFB0EDBCFE9FFFC0EDBCFEAFF3F
:105D9000070EEECFDBFF080EEDCFDBFF030EDBCFF0
:105DA000F3FFDB2AF350E76E070EDBCFE9FF080EA7
:105DB000DBCFEAFFE750E926000EEA22EFCFDFFF54
:105DC000DF50200803E22F0EDF5C01E174D02E0EBD
:105DD000DF5C09E0020EDB50F36E040EDBCFF4FF54
:105DE000F350F45C13E3020EDB50080803E12E0EBF
:105DF000DF5C01E060D0080EF36E040EF3CFDBFF32
:105E00000B0EF36E020EF3CFDBFF54D0610EDF5C9E
:105E10003FE3DF507A083CE339D0030EDBCFF3FFDA
:105E2000DB2AF350E76E070EDBCFE9FF080EDBCF6E
:105E3000EAFFE750E926000EEA22010EEFCFDBFF72
:105E4000040EDBCFF3FFDB2AF350E76E050EDBCF4A
:105E5000E9FF060EDBCFEAFFE750E926000EEA2253
:105E6000DFCFEFFF040EDBCFF3FFDB2AF350E76E4B
:105E7000050EDBCFE9FF060EDBCFEAFFE750E92690
:105E8000000EEA22010EDBCFEFFF14D0200EDF5E02
:105E9000040EDBCFF3FFDB2AF350E76E050EDBCFFA
:105EA000E9FF060EDBCFEAFFE750E926000EEA2203
:105EB000DFCFEFFF73D7030EDB50E76E070EDBCFAC
:105EC00000F0080EDBCF01F0E7500026000E0122A3
:105ED000FB0EDBCFE9FFFC0EDBCFEAFF00C0EEFFDD
:105EE00001C0EDFFDF50200802E3010E01D0000EDB
:105EF000E66E0B0EE76E050EDBCFE9FF060EDBCF7D
:105F0000EAFFE750E926000EEA22E552E750EF6E7D
:105F1000000E00D0006E090EE15C02E2E16AE5527B
:105F2000E16E0050E552E7CFD9FF1200D9CFE6FF6E
:105F3000E1CFD9FFE652F90EDBCFE9FFFA0EDBCF56
:105F4000EAFFEF50200806E1F90EDB2AFA0E01E322
:105F5000DB2AF1D7F90EDBCFE9FFFA0EDBCFEAFF40
:105F6000EF502F0805E1F90EDB2AFA0E01E3DB2AD8
:105F7000FD0EDBCFE9FFFE0EDBCFEAFF040EEB6A7E
:105F8000050EEB6AF90EDBCFE9FFFA0EDBCFEAFF75
:105F9000EF50200812E3FD0EDBCFE6FFFE0EDBCF55
:105FA000E6FF3BDCE552E552DF6EFB0EDBCFE9FF9F
:105FB000FC0EDBCFEAFFEF6AA0D0D950F90FE66EF6
:105FC000FF0EDA20E66EFD0EDBCFE6FFFE0EDBCF26
:105FD000E6FFA7DEE552E552E552E552DF6EDF50FF
:105FE00001E08BD0FB0EDBCFE6FFFC0EDBCFE6FF44
:105FF000FD0EDBCFE6FFFE0EDBCFE6FFE0DDE55278
:10600000E552E552E552DF6EDF501AE0030EDF5C29
:1060100016E1FD0EDBCFE9FFFE0EDBCFEAFF020E3D
:10602000E926000EEA22EE50EFCFEAFFE96E0B0EF2
:10603000E926000EEA22EF5002E1040EDF6E5DD089
:10604000FD0EDBCFE9FFFE0EDBCFEAFF020EE926F5
:10605000000EEA22EE50EFCFEAFFE96E0B0EE926C2
:10606000000EEA22EF5001E048D00B0EE76EFB0E67
:10607000DBCFE9FFFC0EDBCFEAFFE750E926000E9D
:10608000EA22EF50100B03E1040EDF6E36D01A0E39
:10609000E76EFB0EDBCFE9FFFC0EDBCFEAFFE7503C
:1060A000E926000EEA22010EE926000EEA22EFCFD1
:1060B00002F002C003F0026A1A0EE76EFB0EDBCF9D
:1060C000E9FFFC0EDBCFEAFFE750E926000EEA22EB
:1060D000EF5000010210006E03C001F0FD0EDBCF97
:1060E000E9FFFE0EDBCFEAFF040EE926000EEA22EE
:1060F00000C0EEFF01C0EDFF60D7DF5000D0E552D9
:10610000E552E7CFD9FF1200D9CFE6FFE1CFD9FFA3
:10611000020EE66EE66AFE0EE66E010EE66ED950DF
:10612000F90FE96EFF0EDA20EA6EEECFE6FFEECF52
:10613000E6FFEECFE6FFEFCFE6FFFD0EDBCFE6FF9B
:10614000FE0EDBCFE6FF74EC5BF0006E0A0EE15E44
:106150000050000902E0030E70D0010EE76EFD0E44
:10616000DBCFE9FFFE0EDBCFEAFFE750E926000EAA
:10617000EA22EFCF02F002C003F0026AFD0EDBCF8D
:10618000E9FFFE0EDBCFEAFFEF5000010210006EC8
:1061900003C001F0550E001802E1AA0E011802E03A
:1061A000020E4BD0020EE66EE66A360EE66EE66A28
:1061B000D950F90FE96EFF0EDA20EA6EEECFE6FF56
:1061C000EECFE6FFEECFE6FFEFCFE6FFFD0EDBCF33
:1061D000E6FFFE0EDBCFE6FF74EC5BF0006E0A0E0E
:1061E000E15E0050000925E1010EE76EFD0EDBCFF8
:1061F000E9FFFE0EDBCFEAFFE750E926000EEA22B8
:10620000EFCF03F003C004F0036AFD0EDBCFE9FF1C
:10621000FE0EDBCFEAFFEF5000010310016E04C059
:1062200002F0460E011802E1410E021802E1000ED2
:1062300004D0010E02D0000E00D0E552E7CFD9FF06
:106240001200ADCEE9FFAECEEAFF030EEB5000D058
:106250001200D9CFE6FFE1CFD9FF370EE1260E01BC
:10626000AD6BAE6BADCEE9FFAECEEAFF030EE92615
:10627000000EEA22EF6AD950FD0FE96EFF0EDA2018
:10628000EA6EEE50ED1003E1000E36EF36F0250E0B
:10629000DB6A030EF36E250EDBCFF4FFF350F45CE4
:1062A00010E22EEC5AF0E76E360EE7CFDBFFDB5044
:1062B00005E1040EF36E250EF3CFDBFF250EDB2A7E
:1062C000E8D7250EDB50030803E1020E36EF36F067
:1062D000260EDB6A270EDB6A280EDB6A290EDB6AD4
:1062E000D950260FE96EDACFEAFFEECFE6FFEECF08
:1062F000E6FFEECFE6FFEFCFE6FFD950010FE66EE7
:10630000000EDA20E66E00DF006E060EE15E005041
:10631000DF6EDF0401E093D0100EE66EE66ABE0E7B
:10632000E66E010EE66ED950260FE96EDACFEAFF6F
:10633000EECFE6FFEECFE6FFEECFE6FFEFCFE6FFD4
:10634000D950010FE66E000EDA20E66E74EC5BF0B9
:10635000006E0A0EE15E0050000903E0030EDF6EDE
:106360006ED0050EDB506BE00C0EDBCF00F0016A47
:10637000026A036A180E1F0B07E0D8900036013638
:1063800002360336E806F9E10B0EDBCF04F0056AAE
:10639000066A076A100E1F0B07E0D8900436053610
:1063A00006360736E806F9E10450001205500112DE
:1063B00006500212075003120A0EDBCF08F008C085
:1063C00009F0086A0A6A0B6A0850001209500112A3
:1063D0000A5002120B500312090EDBCF0CF00D6AAB
:1063E0000E6A0F6A0C5000120D5001120E5002126C
:1063F0000F500312260E00C0DBFF270E01C0DBFF8B
:10640000280E02C0DBFF290E03C0DBFFD950260F88
:10641000E96EDACFEAFFEECFE6FFEECFE6FFEECF92
:10642000E6FFEFCFE6FFD950010FE66E000EDA204F
:10643000E66E6ADE006E060EE15E0050DF6E030E51
:10644000DF5C03E1010E36EF36F0DF5003E0070EAC
:1064500036EF36F0240EE66EE66A0D0EE66EE66A5C
:10646000D950260FE96EDACFEAFFEECFE6FFEECF86
:10647000E6FFEECFE6FFEFCFE6FFD950010FE66E65
:10648000000EDA20E66E74EC5BF0006E0A0EE15E40
:106490000050000902E0010EE9D3D950170FE96E50
:1064A000DACFEAFF0D0EE95E000EEA5A010EE92688
:1064B000000EEA22EFCF02F002C003F0026AD950C8
:1064C000170FE96EDACFEAFF0D0EE95E000EEA5A09
:1064D000EF5000010210006E03C001F02A0E00C050
:1064E000DBFF2B0E01C0DBFF2C0EDB6A2D0EDB6AFF
:1064F0002A0EDBCF00F02B0EDBCF01F02C0EDBCF12
:1065000002F02D0EDBCF03F000500110021003103B
:1065100001E07ED0D950250FE96EDACFEAFF0D0EEB
:10652000E95E000EEA5A030EE926000EEA22EFCFDA
:1065300000F0016A026A036A180E1F0B07E0D89088
:106540000036013602360336E806F9E1D950250F48
:10655000E96EDACFEAFF0D0EE95E000EEA5A020E8E
:10656000E926000EEA22EFCF04F0056A066A076A00
:10657000100E1F0B07E0D890043605360636073696
:10658000E806F9E10450001205500112065002120B
:1065900007500312D950250FE96EDACFEAFF0D0E2E
:1065A000E95E000EEA5A010EE926000EEA22EFCF5C
:1065B00008F008C009F0086A0A6A0B6A085000125D
:1065C000095001120A5002120B500312D950250F24
:1065D000E96EDACFEAFF0D0EE95E000EEA5AEFCF60
:1065E0000CF00D6A0E6A0F6A0C5000120D50011269
:1065F0000E5002120F5003122A0E00C0DBFF2B0EAA
:1066000001C0DBFF2C0E02C0DBFF2D0E03C0DBFF41
:10661000040EDBCF00F0016A026A036AD9502A0F28
:10662000E96EDACFEAFF00C029F001C02AF002C00B
:106630002BF003C02CF0EECF24F0EECF25F0EECF00
:1066400026F0EFCF27F07AEC75F023C0EDFF22C0E3
:10665000EDFF21C0EDFF20C0EFFFD9500F0FE96E15
:10666000DACFEAFF0D0EE95E000EEA5A010EE926C6
:10667000000EEA22EFCF04F004C005F0046AD950FE
:106680000F0FE96EDACFEAFF0D0EE95E000EEA5A4F
:10669000EF5000010410006E05C001F0026A036AA9
:1066A000D950260FE96EDACFEAFFEE500026EE5001
:1066B0000122EE500222EE500322FD0EDBCFE9FF55
:1066C000FE0EDBCFEAFF080EE926000EEA2200C02C
:1066D000EEFF01C0EEFF02C0EEFF03C0EEFFFD0EB5
:1066E000DBCFE9FFFE0EDBCFEAFF020EE926000E4C
:1066F000EA22010EDBCFEFFFD950120FE96EDACF9D
:10670000EAFF0D0EE95E000EEA5A010EE926000EC0
:10671000EA22EFCF02F002C003F0026AD950120F52
:10672000E96EDACFEAFF0D0EE95E000EEA5AEF508D
:106730000210006E03C001F0FD0EDBCFE9FFFE0E7C
:10674000DBCFEAFF040EE926000EEA2200C0EEFFCE
:1067500001C0EDFFD950140FE96EDACFEAFF0D0E3C
:10676000E95E000EEA5A010EE926000EEA22EFCF9A
:1067700002F002C003F0026AD950140FE96EDACFBA
:10678000EAFF0D0EE95E000EEA5AEF500210006EAD
:1067900003C001F02E0E00C0DBFF2F0E01C0DBFF97
:1067A000300EDB6A310EDB6A2E0EDBCF00F02F0ECF
:1067B000DBCF01F0300EDBCF02F0310EDBCF03F088
:1067C000005001100210031001E07ED0D950210FBB
:1067D000E96EDACFEAFF0D0EE95E000EEA5A030E0B
:1067E000E926000EEA22EFCF00F0016A026A036A8E
:1067F000180E1F0B07E0D89000360136023603361C
:10680000E806F9E1D950210FE96EDACFEAFF0D0E63
:10681000E95E000EEA5A020EE926000EEA22EFCFE8
:1068200004F0056A066A076A100E1F0B07E0D8908D
:106830000436053606360736E806F9E1045000123C
:10684000055001120650021207500312D950210FB1
:10685000E96EDACFEAFF0D0EE95E000EEA5A010E8C
:10686000E926000EEA22EFCF08F008C009F0086A16
:106870000A6A0B6A08500012095001120A500212EB
:106880000B500312D950210FE96EDACFEAFF0D0E3B
:10689000E95E000EEA5AEFCF0CF00D6A0E6A0F6A3D
:1068A0000C5000120D5001120E5002120F50031224
:1068B0002E0E00C0DBFF2F0E01C0DBFF300E02C02A
:1068C000DBFF310E03C0DBFFFD0EDBCFE9FFFE0E69
:1068D000DBCFEAFF020EE926000EEA22EFCF1AF024
:1068E0001B6A1C6A1D6AD9500F0FE96EDACFEAFFE6
:1068F0000D0EE95E000EEA5A010EE926000EEA22AC
:10690000EFCF14F014C015F0146AD9500F0FE96ED0
:10691000DACFEAFF0D0EE95E000EEA5AEF500001F1
:106920001410106E15C011F0126A136AD9502E0F90
:10693000E96EDACFEAFF1050EE5C0C6E1150EE58A3
:106940000D6E1250EE580E6E1350EE580F6ED95059
:106950002A0FE96EDACFEAFFEE500C5C086EEE50BB
:106960000D58096EEE500E580A6EEE500F580B6E11
:10697000FD0EDBCFE9FFFE0EDBCFEAFF040EE926BA
:10698000000EEA22EECF16F0EFCF17F0040E0F0B39
:1069900005E0D89017321632E806FBE1186A196A4A
:1069A0001650085C046E17500958056E18500A58A6
:1069B000066E19500B58076E04C024F005C025F070
:1069C00006C026F007C027F01AC029F01BC02AF025
:1069D0001CC02BF01DC02CF005EC76F024C000F09C
:1069E00025C001F026C002F027C003F0020E0026E9
:1069F000000E012202220322320E00C0DBFF330E02
:106A000001C0DBFF340E02C0DBFF350E03C0DBFF2D
:106A1000FD0EDBCFE9FFFE0EDBCFEAFF060EE92617
:106A2000000EEA22320EDBCFEEFF330EDBCFEDFF9E
:106A3000020EDF6ED950320FE96EDACFEAFFF70EA1
:106A4000EE5C0F0EEE58000EEE58000EEE5802E20D
:106A5000070E0CD1D950320FE96EDACFEAFFF70EEC
:106A6000EE5CFF0EEE58000EEE58000EEE5802E3FC
:106A7000070EFCD0FD0EDBCFE9FFFE0EDBCFEAFFF9
:106A8000DFCFEFFF59D0230EDBCF00F0016A026A9F
:106A9000036A180E1F0B07E0D89000360136023645
:106AA0000336E806F9E1220EDBCF04F0056A066A38
:106AB000076A100E1F0B07E0D8900436053606361D
:106AC0000736E806F9E1045000120550011206509D
:106AD000021207500312210EDBCF08F008C009F0A4
:106AE000086A0A6A0B6A08500012095001120A501B
:106AF00002120B500312200EDBCF0CF00D6A0E6A4F
:106B00000F6A0C5000120D5001120E5002120F505D
:106B10000312FD0EDBCFE9FFFE0EDBCFEAFF0C0E0A
:106B2000E926000EEA2200C0EEFF01C0EEFF02C01F
:106B3000EEFF03C0EEFF30D02A0EDBCF00F02B0EAD
:106B4000DBCF01F02C0EDBCF02F02D0EDBCF03F0FC
:106B5000FD0EDBCFE9FFFE0EDBCFEAFF080EE926D4
:106B6000000EEA22EE500026EE500122EE500222E4
:106B7000EE500322FD0EDBCFE9FFFE0EDBCFEAFF76
:106B80000C0EE926000EEA2200C0EEFF01C0EEFF67
:106B900002C0EEFF03C0EEFF2A0EDBCF00F02B0E8B
:106BA000DBCF01F02C0EDBCF02F02D0EDBCF03F09C
:106BB000FD0EDBCFE9FFFE0EDBCFEAFF080EE92674
:106BC000000EEA22EE500026EE500122EE50022284
:106BD000EE500322FD0EDBCFE9FFFE0EDBCFEAFF16
:106BE000040EE926000EEA22EECF04F0EFCF05F006
:106BF000040E0F0B05E0D89005320432E806FBE1E5
:106C0000066A076A04500026055001220650022237
:106C100007500322FD0EDBCFE9FFFE0EDBCFEAFFBC
:106C2000100EE926000EEA2200C0EEFF01C0EEFFC2
:106C300002C0EEFF03C0EEFFFD0EDBCFE9FFFE0E4C
:106C4000DBCFEAFFEE52EF6AFD0EDBCFADFEFE0EAC
:106C5000DBCFAEFEADCEE9FFAECEEAFF030EE926F6
:106C6000000EEA22010EEF6E000E00D0006E370E0D
:106C7000E15C02E2E16AE552E16E0050E552E7CFE5
:106C8000D9FF1200D9CFE6FFE1CFD9FF3B0EE126B5
:106C9000390EADCEDBFF3A0EAECEDBFFD950390F49
:106CA000E96EDACFEAFFEE50ED1002E1060EC5D034
:106CB000390EDBCFE9FF3A0EDBCFEAFFEE52EF6A87
:106CC000D9500D0F006EDACF01F0030E00C0DBFFCC
:106CD000040E01C0DBFFFD0EDBCFE6FFFE0EDBCFB7
:106CE000E6FFD950190FE66E000EDA20E66ED95095
:106CF000010FE66E000EDA20E66E96EC2FF0006EC5
:106D0000060EE15E0050DF6EDF5002E0DF5095D0EE
:106D1000190EDB5004E0240EDB50100B02E0030ED2
:106D20008CD0340EDBCF02F002C003F0026A330EC7
:106D3000DB5000010210006E03C001F0390EDBCF02
:106D4000E9FF3A0EDBCFEAFF1C0EE926000EEA222D
:106D500000C0EEFF01C0EDFF380EDBCF00F0016A8E
:106D6000026A036A180E1F0B07E0D890003601363E
:106D700002360336E806F9E1370EDBCF04F0056A88
:106D8000066A076A100E1F0B07E0D8900436053616
:106D900006360736E806F9E10450001205500112E4
:106DA0000650021207500312360EDBCF08F008C05F
:106DB00009F0086A0A6A0B6A0850001209500112A9
:106DC0000A5002120B500312350EDBCF0CF00D6A85
:106DD0000E6A0F6A0C5000120D5001120E50021272
:106DE0000F500312390EDBCFE9FF3A0EDBCFEAFF7B
:106DF000180EE926000EEA2200C0EEFF01C0EEFFE9
:106E000002C0EEFF03C0EEFF390EDBCFE9FF3A0E02
:106E1000DBCFEAFF140EE926000EEA22EE6AEE6AE4
:106E2000EE6AEE6A390EDBCFE9FF3A0EDBCFEAFFFE
:106E3000EE52010EEF6E000E00D0006E3B0EE15CD4
:106E400002E2E16AE552E16E0050E552E7CFD9FF78
:106E50001200D9CFE6FFE1CFD9FF120EE126FD0ED9
:106E6000DBCF26F0FE0EDBCF27F00E0E26C0DBFFB9
:106E70000F0E27C0DBFF100EADCEDBFF110EAECE26
:106E8000DBFFF90EDBCFE9FFFA0EDBCFEAFFEE6A9C
:106E9000ED6AD950100FE96EDACFEAFFEE50ED102F
:106EA00002E1060E66D2100EDBCFE9FF110EDBCF3A
:106EB000EAFFEE52EF50010B02E1050E5AD2100E1E
:106EC000DBCFE9FF110EDBCFEAFF180EE926000E3B
:106ED000EA22EECF04F0EECF05F0EECF06F0EFCFD2
:106EE00007F0100EDBCFE9FF110EDBCFEAFF140E27
:106EF000E926000EEA22EE50045C006EEE500558C2
:106F0000016EEE500658026EEE500758036E070EE3
:106F100000C0DBFF080E01C0DBFF090E02C0DBFF73
:106F20000A0E03C0DBFFFB0EDBCF00F0FC0EDBCF55
:106F300001F0026A036AD950070FE96EDACFEAFF5F
:106F40000050EE5C0150EE580250EE580350EE58DF
:106F50000CE2070EDBCF26F0080EDBCF27F0FB0E8E
:106F600026C0DBFFFC0E27C0DBFFD950FB0FE96E0C
:106F7000FF0EDA20EA6EEE50ED1001E1EED1100EB8
:106F8000DBCFE9FF110EDBCFEAFF140EE926000E7E
:106F9000EA22EECF00F0EECF01F0EECF02F0EFCF1D
:106FA00003F0010E0116026A036A0050011002107C
:106FB000031001E0E9D0100EDBCFE9FF110EDBCFAB
:106FC000EAFF140EE926000EEA22EECF00F0EECF23
:106FD00001F0EECF02F0EFCF03F0090ED8900332AC
:106FE000023201320032E806F9E1100EDBCFE9FF90
:106FF000110EDBCFEAFF020EE926000EEA22EF04B3
:10700000046E056A066A076A0450001605500116E8
:1070100006500216075003160D0E00C0DBFFDB50B2
:107020005EE1100EDBCFE9FF110EDBCFEAFF140E9D
:10703000E926000EEA22EECF02F0EECF03F0EECF0B
:1070400004F0EFCF05F002500310041005100FE11B
:10705000100EDBCFE9FF110EDBCFEAFF1C0EE92695
:10706000000EEA22EECF00F0EFCF01F016D0100EA6
:10707000DBCFE9FF110EDBCFEAFF1E0EE926000E83
:10708000EA22EECFE6FFEFCFE6FFD6EC2AF0E5529C
:10709000E552F3CF00F0F4CF01F0010E00C0DBFFAA
:1070A000020E01C0DBFFD950010FE96EDACFEAFF13
:1070B000010ED880EE54000EED5401E350D1100EB5
:1070C000DBCFE9FF110EDBCFEAFF1E0EE926000E33
:1070D000EA22010EDBCFEEFF020EDBCFEDFF100E3A
:1070E000DBCFE9FF110EDBCFEAFF1E0EE926000E13
:1070F000EA22EECFE6FFEFCFE6FF82EC2BF0E5527F
:10710000E552030E24C0DBFF040E25C0DBFF050E95
:1071100026C0DBFF060E27C0DBFF030EDBCF00F02F
:10712000040EDBCF01F0050EDBCF02F0060EDBCF45
:1071300003F0005001100210031001E110D10D0EF8
:10714000DBCF00F0016A026A036AD950030FE96ECF
:10715000DACFEAFFEE500026EE500122EE50022276
:10716000EE500322100EDBCFE9FF110EDBCFEAFF5A
:10717000200EE926000EEA2200C0EEFF01C0EEFF5D
:1071800002C0EEFF03C0EEFF046A020E056E066A3F
:10719000076A100EDBCFE9FF110EDBCFEAFF140EFA
:1071A000E926000EEA22EECF24F0EECF25F0EECF56
:1071B00026F0EFCF27F0296A020E2A6E2B6A2C6A7E
:1071C00005EC76F02050045C006E21500558016EED
:1071D00022500658026E23500758036E0B0E00C053
:1071E000DBFF0C0E01C0DBFF0B0EDBCF00F00C0E43
:1071F000DBCF01F0FB0EDBCF02F0FC0EDBCF03F0A8
:107200000050025C015003580CE2FB0EDBCF26F06D
:10721000FC0EDBCF27F00B0E26C0DBFF0C0E27C0C9
:10722000DBFF0B0EDBCFE6FF0C0EDBCFE6FF100E15
:10723000DBCFE9FF110EDBCFEAFF140EE926000ECB
:10724000EA22EECF00F0EECF01F0EECF02F0EFCF6A
:1072500003F0010E0116026A036A00C0E6FF01C0D6
:10726000E6FF100EDBCFE9FF110EDBCFEAFF200EA9
:10727000E926000EEA22EECFE6FFEECFE6FFEECFE4
:10728000E6FFEFCFE6FFD950FD0FE96EFF0EDA20E3
:10729000EA6EEE50ED1003E1046A056A06D00E0EA8
:1072A000DBCF04F00F0EDBCF05F004C0E6FF05C016
:1072B000E6FF74EC5BF0066E0A0EE15E0650DF6ED0
:1072C000DF5001E04CD00B0EDBCF00F00C0EDBCF1B
:1072D00001F0026A036A100EDBCFE9FF110EDBCF6B
:1072E000EAFF140EE926000EEA220050EE260150B5
:1072F000EE220250EE220350EE220B0EDBCF00F006
:107300000C0EDBCF01F0D9500E0FE96EDACFEAFF99
:107310000050EE260150ED220B0EDBCF00F00C0EDC
:10732000DBCF01F0D950FB0FE96EFF0EDA20EA6ED9
:107330000050EE5E0150ED5A0B0EDBCF00F00C0E4C
:10734000DBCF01F0F90EDBCFE9FFFA0EDBCFEAFF6E
:107350000050EE260150ED2208D6000E0AD0100E85
:10736000DBCFE9FF110EDBCFEAFFEE52EF6A010E31
:1073700000D0006E120EE15C02E2E16AE552E16EBD
:107380000050E552E7CFD9FF1200D9CFE6FFE1CF99
:10739000D9FF110EE126FD0EDBCF26F0FE0EDBCF6E
:1073A00027F00A0E26C0DBFF0B0E27C0DBFF0F0EF7
:1073B000ADCEDBFF100EAECEDBFFF90EDBCFE9FF6B
:1073C000FA0EDBCFEAFFEE6AED6AD9500F0FE96ED5
:1073D000DACFEAFFEE50ED1002E1060EA8D20F0E52
:1073E000DBCFE9FF100EDBCFEAFFEE52EF50010BCF
:1073F00002E1050E9CD2D950FB0FE96EFF0EDA2098
:10740000EA6EEE50ED1025E10F0EDBCFE9FF100E16
:10741000DBCFEAFFEE52EF50400B10E0E66AE66A7F
:10742000E66AE66A000EE66EE66A4CEC5CF0006E18
:10743000060EE15E0050000901E06FD20F0EDBCFB7
:10744000E9FF100EDBCFEAFFEE52EF9C000E6FD289
:1074500016D00F0EDBCFE9FF100EDBCFEAFFEE52A6
:10746000EF50400B0CE10F0EDBCFE9FF100EDBCF2E
:10747000EAFF140EE926000EEA22EE6AEE900F0EE5
:10748000DBCFE9FF100EDBCFEAFF180EE926000E76
:10749000EA22EECF04F0EECF05F0EECF06F0EFCF0C
:1074A00007F00F0EDBCFE9FF100EDBCFEAFF140E63
:1074B000E926000EEA22EE50045C006EEE500558FC
:1074C000016EEE500658026EEE500758036E060E1F
:1074D00000C0DBFF070E01C0DBFF080E02C0DBFFB0
:1074E000090E03C0DBFFFB0EDBCF00F0FC0EDBCF91
:1074F00001F0026A036AD950060FE96EDACFEAFF9B
:107500000050EE5C0150EE580250EE580350EE5819
:107510000CE2060EDBCF26F0070EDBCF27F0FB0ECA
:1075200026C0DBFFFC0E27C0DBFFD950FB0FE96E46
:10753000FF0EDA20EA6EEE50ED1001E1ECD10F0EF5
:10754000DBCFE9FF100EDBCFEAFF140EE926000EB9
:10755000EA22EECF00F0EFCF01F00001010E01169C
:107560000050011001E009D10F0EDBCFE9FF100E32
:10757000DBCFEAFF140EE926000EEA22EECF00F080
:10758000EECF01F0EECF02F0EFCF03F0090ED8906E
:107590000332023201320032E806F9E10F0EDBCF8E
:1075A000E9FF100EDBCFEAFF020EE926000EEA2209
:1075B000EF04046E056A066A076A04500016055057
:1075C000011606500216075003160C0E00C0DBFF12
:1075D000DB5059E10F0EDBCFE9FF100EDBCFEAFFE6
:1075E000140EE926000EEA22EECF02F0EECF03F0F1
:1075F000EECF04F0EFCF05F0025003100410051099
:107600000FE10F0EDBCFE9FF100EDBCFEAFF1C0E00
:10761000E926000EEA22EECF00F0EFCF01F016D0FF
:107620000F0EDBCFE9FF100EDBCFEAFF1E0EE926BF
:10763000000EEA22EECFE6FFEFCFE6FFD6EC2AF00F
:10764000E552E552F3CF00F0F4CF01F000C0DEFFC9
:1076500001C0DDFFD9CFE9FFDACFEAFF010ED88004
:10766000EE54000EED5401E358D10F0EDBCFE9FFCD
:10767000100EDBCFEAFF1E0EE926000EEA22DECF57
:10768000EEFFDDCFEDFF0F0EDBCFE9FF100EDBCFFE
:10769000EAFF1E0EE926000EEA22EECFE6FFEFCF4C
:1076A000E6FF82EC2BF0E552E552020E24C0DBFF30
:1076B000030E25C0DBFF040E26C0DBFF050E27C02E
:1076C000DBFF020EDBCF00F0030EDBCF01F0040E78
:1076D000DBCF02F0050EDBCF03F0005001100210EB
:1076E000031001E11AD10C0EDBCF00F0016A026A2F
:1076F000036AD950020FE96EDACFEAFFEE50002696
:10770000EE500122EE500222EE5003220F0EDBCF8C
:10771000E9FF100EDBCFEAFF200EE926000EEA2279
:1077200000C0EEFF01C0EEFF02C0EEFF03C0EEFF9F
:107730000F0EDBCFE9FF100EDBCFEAFF200EE926AC
:10774000000EEA22EECFE6FFEECFE6FFEECFE6FF39
:10775000EFCFE6FFE66EE66A4CEC5CF0006E060EDC
:10776000E15E0050000901E0D8D00F0EDBCFE9FF49
:10777000100EDBCFEAFFEE52EF8C0F0EDBCFE9FFEE
:10778000100EDBCFEAFF140EE926000EEA22EECF40
:1077900000F0EFCF01F00001010E0116000ED880BD
:1077A0000056020E01560D0E00C0DBFF0E0E01C08A
:1077B000DBFF0D0EDBCF00F00E0EDBCF01F0FB0E7A
:1077C000DBCF02F0FC0EDBCF03F00050025C015077
:1077D00003580CE2FB0EDBCF26F0FC0EDBCF27F0CC
:1077E0000D0E26C0DBFF0E0E27C0DBFF0D0EDBCF1C
:1077F00000F00E0EDBCF01F0026A036A00C0E6FF64
:1078000001C0E6FF02C0E6FF03C0E6FF0A0EDBCFC1
:10781000E6FF0B0EDBCFE6FF4CEC5CF0046E060ED1
:10782000E15E0450000901E078D00D0EDBCF00F0DE
:107830000E0EDBCF01F0026A036A0F0EDBCFE9FF09
:10784000100EDBCFEAFF140EE926000EEA220050EC
:10785000EE260150EE220250EE220350EE220D0ED3
:10786000DBCF00F00E0EDBCF01F0D9500A0FE96E2E
:10787000DACFEAFF0050EE260150ED220D0EDBCFED
:1078800000F00E0EDBCF01F0D950FB0FE96EFF0EBA
:10789000DA20EA6E0050EE5E0150ED5A0D0EDBCF9D
:1078A00000F00E0EDBCF01F0F90EDBCFE9FFFA0E90
:1078B000DBCFEAFF0050EE260150ED220F0EDBCFAA
:1078C000E9FF100EDBCFEAFF140EE926000EEA22D4
:1078D000EECF00F0EFCF01F00001010E01160050D5
:1078E000011018E1E66AE66AE66AE66A000EE66EEC
:1078F000E66A4CEC5CF0006E060EE15E005000099A
:1079000001E00BD00F0EDBCFE9FF100EDBCFEAFF5B
:10791000EE52EF9C0AD6000E0AD00F0EDBCFE9FF25
:10792000100EDBCFEAFFEE52EF6A010E00D0006EC0
:10793000110EE15C02E2E16AE552E16E0050E552AF
:10794000E7CFD9FF1200D9CFE6FFE1CFD9FF100E64
:10795000E1260E0EADCEDBFF0F0EAECEDBFFD95013
:107960000E0FE96EDACFEAFFEE50ED1002E1060EDF
:10797000AAD20E0EDBCFE9FF0F0EDBCFEAFFEE52ED
:10798000EF50010B02E1050E9ED2FB0EDBCF00F0A3
:10799000FC0EDBCF01F0FD0EDBCF02F0FE0EDBCFE5
:1079A00003F00E0EDBCFE9FF0F0EDBCFEAFF180E60
:1079B000E926000EEA220050EE5C0150EE5802501B
:1079C000EE580350EE5816E20E0EDBCFE9FF0F0E15
:1079D000DBCFEAFF180EE926000EEA22FB0EEECFFF
:1079E000DBFFFC0EEECFDBFFFD0EEECFDBFFFE0E6E
:1079F000EECFDBFF0E0EDBCFE9FF0F0EDBCFEAFF92
:107A0000140EE926000EEA220A0EEECFDBFF0B0E63
:107A1000EECFDBFF0C0EEECFDBFF0D0EEECFDBFF6C
:107A20000E0EDBCFE9FF0F0EDBCFEAFF140EE926C7
:107A3000000EEA22EE6AEE6AEE6AEE6AD950FB0F99
:107A4000E96EFF0EDA20EA6ED880000EEE54000ECA
:107A5000EE54000EEE54000EEE5401E328D20E0E4A
:107A6000DBCFE9FF0F0EDBCFEAFF020EE926000EA7
:107A7000EA22EFCF24F0256A266A276A296A020ED5
:107A80002A6E2B6A2C6A7AEC75F0020E20C0DBFF9E
:107A9000030E21C0DBFF040E22C0DBFF050E23C056
:107AA000DBFFD9500A0FE96EDACFEAFFD880000E6B
:107AB000EE54000EEE54000EEE54000EEE5401E3B0
:107AC000CED00A0EDBCF08F00B0EDBCF09F00C0E88
:107AD000DBCF0AF00D0EDBCF0BF00806000E095AC3
:107AE0000A5A0B5A08C024F009C025F00AC026F033
:107AF0000BC027F0020EDBCF29F0030EDBCF2AF0FC
:107B0000040EDBCF2BF0050EDBCF2CF005EC76F06E
:107B100024C004F025C005F026C006F027C007F0F9
:107B2000FB0EDBCF00F0FC0EDBCF01F0FD0EDBCF58
:107B300002F0FE0EDBCF03F00006000E015A025ADF
:107B4000035A00C024F001C025F002C026F003C093
:107B500027F0020EDBCF29F0030EDBCF2AF0040E54
:107B6000DBCF2BF0050EDBCF2CF005EC76F00450CC
:107B7000245C0550255806502658075027586FE3B7
:107B80000A0EDBCF00F00B0EDBCF01F00C0EDBCFCB
:107B900002F00D0EDBCF03F00006000E015A025A70
:107BA000035A020EDBCF04F0030EDBCF05F0040E08
:107BB000DBCF06F0050EDBCF07F00406000E055AFA
:107BC000065A075A041E051E061E071E04500016FC
:107BD0000550011606500216075003160E0EDBCF95
:107BE000E9FF0F0EDBCFEAFF140EE926000EEA22B2
:107BF00000C0EEFF01C0EEFF02C0EEFF03C0EEFFCB
:107C00000E0EDBCFE9FF0F0EDBCFEAFF140EE926E5
:107C1000000EEA22EECF00F0EECF01F0EECF02F040
:107C2000EFCF03F0D950FB0FE96EFF0EDA20EA6EBA
:107C30000050EE5E0150EE5A0250EE5A0350EE5ADA
:107C40000E0EDBCFE9FF0F0EDBCFEAFF1E0EE9269B
:107C5000000EEA22EECFDEFFEDCFDDFF1CD00E0ED0
:107C6000DBCFE9FF0F0EDBCFEAFF1C0EE926000E8B
:107C7000EA22EECFDEFFEDCFDDFF0E0EDBCFE9FF18
:107C80000F0EDBCFEAFF1E0EE926000EEA22DECF42
:107C9000EEFFDDCFEDFF020EDBCF00F0030EDBCFFA
:107CA00001F0040EDBCF02F0050EDBCF03F0D9505C
:107CB000FB0FE96EFF0EDA20EA6EEE50005CEE502C
:107CC0000158EE500258EE50035865E2DECFE6FF51
:107CD000DDCFE6FFD6EC2AF0E552E552F3CFDEFF2A
:107CE000F4CFDDFFD9CFE9FFDACFEAFF010ED8806C
:107CF000EE54000EED5417E2DECF00F0DDCF01F0C0
:107D00000E0EDBCFE9FF0F0EDBCFEAFF060EE926F2
:107D1000000EEA22EECF02F0EFCF03F00250005C3B
:107D20000350015801E3C5D00E0EDBCFE9FF0F0E63
:107D3000DBCFEAFF1E0EE926000EEA22DECFEEFFC1
:107D4000DDCFEDFF0E0EDBCFE9FF0F0EDBCFEAFF3D
:107D5000140EE926000EEA22020EDB50EE26030E78
:107D6000DB50EE22040EDB50EE22050EDB50EE223D
:107D7000D950FB0FE96EFF0EDA20EA6E020EDB50DF
:107D8000EE5E030EDB50EE5A040EDB50EE5A050E8B
:107D9000DB50EE5A80D70E0EDBCFE9FF0F0EDBCFA4
:107DA000EAFF140EE926000EEA22FB0EDB50EE2657
:107DB000FC0EDB50EE22FD0EDB50EE22FE0EDB5001
:107DC000EE22DECFE6FFDDCFE6FF82EC2BF0E552C0
:107DD000E552060E24C0DBFF070E25C0DBFF080EB0
:107DE00026C0DBFF090E27C0DBFF060EDBCF00F04D
:107DF000070EDBCF01F0080EDBCF02F0090EDBCF60
:107E000003F0005001100210031001E152D00E0ED9
:107E1000DBCFE9FF0F0EDBCFEAFF140EE926000EE1
:107E2000EA22EECF00F0EECF01F0EECF02F0EFCF7E
:107E300003F0090ED8900332023201320032E80614
:107E4000F9E10E0EDBCFE9FF0F0EDBCFEAFF020EEA
:107E5000E926000EEA22EF04046E056A066A076A44
:107E6000045000160550011606500216075003165E
:107E7000D950060FE96EDACFEAFFEE500026EE5039
:107E80000122EE500222EE5003220E0EDBCFE9FF5C
:107E90000F0EDBCFEAFF200EE926000EEA2200C01B
:107EA000EEFF01C0EEFF02C0EEFF03C0EEFF000ECA
:107EB0000AD00E0EDBCFE9FF0F0EDBCFEAFFEE524A
:107EC000EF6A010E00D0006E100EE15C02E2E16A82
:107ED000E552E16E0050E552E7CFD9FF1200D9CF4D
:107EE000E6FFE1CFD9FF0B0EE126070EDB6A080E95
:107EF000DB6A090EDB6A0A0EDB6AFB0EDBCFE9FFE9
:107F0000FC0EDBCFEAFF080EE926000EEA22EECFD8
:107F1000E6FFEFCFE6FF42EC36F0E552E552E76EC2
:107F2000040EE7CFDBFFDB5003E0040EDB5011D182
:107F3000FD0EDBCFE9FFFE0EDBCFEAFF180EE926D0
:107F4000000EEA22EECF00F0EECF01F0EECF02F00D
:107F5000EFCF03F0FB0EDBCFE9FFFC0EDBCFEAFF38
:107F6000040EE926000EEA2200C0EEFF01C0EEFF7B
:107F700002C0EEFF03C0EEFFFB0EDBCFE9FFFC0EFD
:107F8000DBCFEAFFEE6AEE6AEE6AEE6AFA0EDB50CB
:107F9000006E016AFA0EDB50026E036A266A020E58
:107FA000276E02C02BF003C02CF059EC76F000C015
:107FB0002BF001C02CF060EC73F0050E24C0DBFF49
:107FC000060E25C0DBFFD9CFE6FFDACFE6FF050EB0
:107FD000DBCFE6FF060EDBCFE6FF000EE66E0B0EF4
:107FE000E66E29EC37F0006E060EE15E0050E76E9B
:107FF000040EE7CFDBFFDB5007E1D9CFE9FFDACF93
:10800000EAFFEE50ED1015E1FB0EDBCFE9FFFC0EB1
:10801000DBCFEAFF070EDBCFEEFF080EDBCFEEFF74
:10802000090EDBCFEEFF0A0EDBCFEEFF040EDB50B6
:1080300090D0020EDB6A030EDB6A020EDBCF00F08B
:10804000030EDBCF01F0050EDBCF02F0060EDBCF17
:1080500003F00250005C0350015865E2020EDBCFD2
:1080600004F0030EDBCF05F0DECF06F0DDCF07F026
:108070000650045C0750055856E2020EDBCFE9FFBC
:10808000030EDBCFEAFF000EE9260B0EEA22EF50CB
:1080900020080CE0020EDBCFE9FF030EDBCFEAFF86
:1080A000000EE9260B0EEA22EF5029E1020EDBCF8B
:1080B00004F0030EDBCF05F0066A076AD950070FFC
:1080C000E96EDACFEAFF0450EE24006E0550EE2090
:1080D000016E0650EE20026E0750EE20036EFB0E7E
:1080E000DBCFE9FFFC0EDBCFEAFF00C0EEFF01C0F3
:1080F000EEFF02C0EEFF03C0EEFF000E2AD0FA0E24
:10810000DB50E76E020EDBCF00F0030EDBCF01F099
:10811000E7500026000E0122020E00C0DBFF030E16
:1081200001C0DBFF8AD7DECF00F0DDCF01F0026AAD
:10813000036AD950070FE96EDACFEAFF0050EE2646
:108140000150EE220250EE220350EE223CD7000EE8
:1081500000D0006E0B0EE15C02E2E16AE552E16ED6
:108160000050E552E7CFD9FF1200D9CFE6FFE1CFAB
:10817000D9FFFD0EDBCFE9FFFE0EDBCFEAFFEE6A93
:10818000EE6AEE6AEE6A000E00D0E552E7CFD9FF44
:108190001200D9CFE6FFE1CFD9FF110EE126FD0E87
:1081A000DBCFE9FFFE0EDBCFEAFF080EE926000E6B
:1081B000EA22EECFE6FFEFCFE6FF42EC36F0E552E3
:1081C000E552DF6EDF5002E0DF5087D1FB0EDBCFE0
:1081D00004F0FC0EDBCF05F0066A076AFD0EDBCF6C
:1081E000E9FFFE0EDBCFEAFFEE500424006EEE50F6
:1081F0000520016EEE500620026EEE500720036E41
:108200000E0E0026000E012202220322020E00267C
:10821000000E012202220322FD0EDBCFE9FFFE0E3B
:10822000DBCFEAFF040EE926000EEA220050EE5CE6
:108230000150EE580250EE580350EE580AE2FD0E7F
:10824000DBCFE9FFFE0EDBCFEAFFEE6AEE6AEE6AF5
:10825000EE6AFD0EDBCFE9FFFE0EDBCFEAFFEECFCD
:1082600000F0EECF01F0EECF02F0EFCF03F0090EF9
:10827000D8900332023201320032E806F9E1090EE9
:10828000D8900036013602360336E806F9E100C020
:10829000E6FF01C0E6FF02C0E6FF03C0E6FFA3EC75
:1082A0003CF0E552E552E552E552DF6EDF5002E068
:1082B000DF5013D1FD0EDBCFE9FFFE0EDBCFEAFF6F
:1082C000EECF24F0EECF25F0EECF26F0EFCF27F063
:1082D000296A020E2A6E2B6A2C6A05EC76F0030ED0
:1082E00020C0DBFF040E21C0DBFFD950030FE96E75
:1082F000DACFEAFFEE50ED101BE0D950010FE66E29
:10830000000EDA20E66E030EDBCFE6FF040EDBCFB5
:10831000E6FF000EE66E0B0EE66E29EC37F0006EFF
:10832000060EE15E0050DF6EDF5002E0DF50D5D078
:10833000FD0EDBCFE9FFFE0EDBCFEAFFEECF00F054
:10834000EECF01F0EECF02F0EFCF03F0090ED890A0
:108350000332023201320032E806F9E1090ED89008
:108360000036013602360336E806F9E100C0E6FFC2
:1083700001C0E6FF02C0E6FF03C0E6FFA3EC3CF04D
:10838000E552E552E552E552DF6EDF5002E0DF5084
:10839000A4D0D950010FE66E000EDA20E66E030E6F
:1083A000DBCFE6FF040EDBCFE6FF000EE66E0B0E22
:1083B000E66EC5EC39F0006E060EE15E0050DF6E31
:1083C000DF500EE1030EDBCF00F0040EDBCF01F037
:1083D000010EDB50001803E1020EDB50011802E031
:1083E000DF507BD0070EF36E100EF3CFDBFFDB50B8
:1083F000000850E2D950080F006EDACF01F0100EDD
:10840000DB040F010024E96E000E0120EA6EEF3854
:108410000F0B0F0B300FE76E050EE7CFDBFFD950C8
:10842000080F006EDACF01F0100EDB040024E96EB5
:10843000000E0120EA6EEF500F0B300FE76E060EB4
:10844000E7CFDBFFD950010FE66E000EDA20E66EB3
:10845000020EE66EE66AD950050FE66E000EDA20CF
:10846000E66EC5EC39F0006E060EE15E0050DF6E80
:10847000DF500BE1020E006E016A010EDB500018A6
:1084800003E1020EDB50011802E0DF5026D0100E8F
:10849000DB06ADD70E0E006E016A026A036AFD0E9E
:1084A000DBCFE9FFFE0EDBCFEAFFEE500026EE50F9
:1084B0000122EE500222EE500322FD0EDBCFE9FF37
:1084C000FE0EDBCFEAFF00C0EEFF01C0EEFF02C0F0
:1084D000EEFF03C0EEFF000E00D0006E110EE15C57
:1084E00002E2E16AE552E16E0050E552E7CFD9FFC2
:1084F0001200D9CFE6FFE1CFD9FF030EE126D95014
:10850000010FE66E000EDA20E66EF90EDBCFE6FF15
:10851000FA0EDBCFE6FFFB0EDBCFE6FFFC0EDBCF78
:10852000E6FFC5EC39F0006E060EE15E0050DF6E2E
:10853000DF500EE1F90EDBCF00F0FA0EDBCF01F0D9
:10854000010EDB50001803E1020EDB50011802E0BF
:10855000DF5026D0F90EDBCF00F0FA0EDBCF01F0B2
:10856000026A036AFD0EDBCFE9FFFE0EDBCFEAFFF6
:10857000EE500026EE500122EE500222EE50032271
:10858000FD0EDBCFE9FFFE0EDBCFEAFF00C0EEFF02
:1085900001C0EEFF02C0EEFF03C0EEFF000E00D0F0
:1085A000006E030EE15C02E2E16AE552E16E00500A
:1085B000E552E7CFD9FF1200D9CFE6FFE1CFD9FFCF
:1085C000060EE1260D0EF36E030EF3CFDBFF0A0E4F
:1085D000F36E040EF3CFDBFFD950010FE66E000EF1
:1085E000DA20E66E020EE66EE66AD950030FE66EFA
:1085F000000EDA20E66EC5EC39F0006E060EE15E84
:108600000050DF6EDF500AE1D950010FE96EDACF7A
:10861000EAFF020EEE1801E1ED5002E0DF5035D026
:10862000020E006E016A026A036AFD0EDBCFE9FFEB
:10863000FE0EDBCFEAFFEE500026EE500122EE5098
:108640000222EE500322FD0EDBCFE9FFFE0EDBCF50
:10865000EAFF00C0EEFF01C0EEFF02C0EEFF03C064
:10866000EEFFD950010FE66E000EDA20E66E000E26
:10867000E66EE66AE66EE66AC5EC39F0006E060E56
:10868000E15E0050DF6E000E00D0006E060EE15C71
:1086900002E2E16AE552E16E0050E552E7CFD9FF10
:1086A0001200D9CFE6FFE1CFD9FF040EE126090E73
:1086B000F36E030EF3CFDBFFFD0EDBCFE9FFFE0E03
:1086C000DBCFEAFFEECF00F0EECF01F0EECF02F00D
:1086D000EFCF03F0380E296E2A6A2B6A2C6A00C08D
:1086E00024F001C025F002C026F003C027F005ECFD
:1086F00076F024C000F025C001F026C002F027C0AB
:1087000003F0380E296E2A6A2B6A2C6A00C024F006
:1087100001C025F002C026F003C027F07AEC75F006
:1087200020C000F021C001F022C002F023C003F0FD
:10873000FD0EDBCFE9FFFE0EDBCFEAFF00C0EEFF50
:1087400001C0EEFF02C0EEFF03C0EEFFF90EDBCF6B
:1087500000F0FA0EDBCF01F0050E0102F3CF01F0BD
:108760000002F3CF00F0F450012600C0E6FF01C084
:10877000E6FFFD0EDBCFE6FFFE0EDBCFE6FF09DDF9
:10878000E552E552E552E552DF6EDF5002E0DF5080
:108790006CD0010EDB6A020EDB6A010EDBCF00F04B
:1087A000020EDBCF01F0F90EDBCF02F0FA0EDBCFC9
:1087B00003F00250005C0350015847E2010EE66EE0
:1087C000E66AD950030FE66E000EDA20E66EFD0E63
:1087D000DBCFE6FFFE0EDBCFE6FF8BDE006E060E84
:1087E000E15E0050DF6EF80EDBCFE6FFE66A010EB9
:1087F000DBCF00F0020EDBCF01F0010ED890003687
:108800000136E806FBE1FB0EDB500024E96EFC0EAE
:10881000DB500120EA6EEECFE6FFEFCFE6FFFD0E64
:10882000DBCFE6FFFE0EDBCFE6FF63DE026E060E59
:10883000E15E0250DF6EDF5002E0DF5016D0010E25
:10884000DB2A020E01E3DB2AA8D7FD0EDBCFE6FF11
:10885000FE0EDBCFE6FFB0DEE552E552DF6EDF5005
:1088600002E0DF5002D0000E00D0006E040EE15C8A
:1088700002E2E16AE552E16E0050E552E7CFD9FF2E
:108880001200D9CFE6FFE1CFD9FFE552E7CFD9FFFC
:108890001200D9CFE6FFE1CFD9FF0D0EE126D95066
:1088A000020FE96EDACFEAFF200EEE6EEE6EEE6E8C
:1088B000EE6EEE6EEE6EEE6EEE6EEE6EEE6EEE6ADC
:1088C000010EDB6A0A0EF36E010EDBCFF4FFF350EC
:1088D000F45C32E2FA0EDBCFF6FFFB0EDBCFF7FFE4
:1088E000FC0EDBCFF8FF0800F55026E0D950FA0F58
:1088F000E96EFF0EDA20EA6EEFCFF6FFEE2AEFCF39
:10890000F7FF000EEE22EFCFF8FFEE220800F55041
:10891000E66ED950020F006EDACF01F0010EDB5087
:108920000F010024E96E000E0120EA6EE552E750C7
:10893000EF6E010EDB2AC6D7010EDB50020FE66E8A
:10894000E66AFD0EDBCFE6FFFE0EDBCFE6FF21DCA5
:10895000E552E552E552E552DF6EDF5002E0DF50AE
:1089600029D00A0EE66EE66AD950020FE66E000EB6
:10897000DA20E66EFD0EDBCFE6FFFE0EDBCFE6FF74
:10898000B8DD006E060EE15E0050DF6EDF5002E0E3
:10899000DF5010D0FD0EDBCFE6FFFE0EDBCFE6FF93
:1089A0000BDEE552E552DF6EDF5002E0DF5002D011
:1089B000000E00D0006E0D0EE15C02E2E16AE552AD
:1089C000E16E0050E552E7CFD9FF1200D9CFE6FFA4
:1089D000E1CFD9FF0D0EE126D950020FE96EDACFB3
:1089E000EAFF200EEE6EEE6EEE6EEE6EEE6EEE6E48
:1089F000EE6EEE6EEE6EEE6EEE6A010EDB6A0A0E43
:108A0000F36E010EDBCFF4FFF350F45C26E2FB0EB5
:108A1000DBCFE9FFFC0EDBCFEAFFEF501EE0FB0EE1
:108A2000DBCFE9FFDB2AFC0EDBCFEAFF01E3DB2A29
:108A3000EF50E66ED950020F006EDACF01F0010E52
:108A4000DB500F010024E96E000E0120EA6EE552B2
:108A5000E750EF6E010EDB2AD2D7010EDB50020F7A
:108A6000E66EE66AFD0EDBCFE6FFFE0EDBCFE6FF2D
:108A7000C9EC40F0E552E552E552E552DF6EDF50B9
:108A800002E0DF5029D00A0EE66EE66AD950020FE6
:108A9000E66E000EDA20E66EFD0EDBCFE6FFFE0E80
:108AA000DBCFE6FF26DD006E060EE15E0050DF6ED6
:108AB000DF5002E0DF5010D0FD0EDBCFE6FFFE0EF0
:108AC000DBCFE6FF79DDE552E552DF6EDF5002E0F5
:108AD000DF5002D0000E00D0006E0D0EE15C02E20D
:108AE000E16AE552E16E0050E552E7CFD9FF12008E
:108AF000D9CFE6FFE1CFD9FF0A0EE126D9CFE9FFB2
:108B0000DACFEAFF560EEE6E300EEE6EEE6EEE6EC1
:108B1000EE6E2E0EEE6E300EEE6EEE6EEE6EEE6AB7
:108B2000FC0EDB50DF6EFB0EDB50E76E010EE7CF75
:108B3000DBFF640E006E00C02CF0FA0EDBCF27F0D6
:108B4000B1EC76F02750300FE76E020EE7CFDBFF77
:108B5000640E016E01C02CF0FA0EDBCF27F0B1ECF1
:108B600076F023C000F00A0E026E02C02CF000C0A6
:108B700027F0B1EC76F02750300FE76E030EE7CF09
:108B8000DBFF0A0E006E00C02CF0FA0EDBCF27F0E0
:108B9000B1EC76F02350300FE76E040EE7CFDBFF29
:108BA0002E0EF36E050EF3CFDBFF640E006E00C0D9
:108BB0002CF0F90EDBCF27F0B1EC76F02750300F18
:108BC000E76E060EE7CFDBFF640E016E01C02CF0EE
:108BD000F90EDBCF27F0B1EC76F023C000F00A0EDF
:108BE000026E02C02CF000C027F0B1EC76F02750E6
:108BF000300FE76E070EE7CFDBFF0A0E006E00C0F6
:108C00002CF0F90EDBCF27F0B1EC76F02350300FCB
:108C1000E76E080EE7CFDBFFD9CFE6FFDACFE6FF3E
:108C2000FD0EDBCFE6FFFE0EDBCFE6FFCFDEE5522B
:108C3000E552E552E552000E006E0A0EE15C03E2D9
:108C400000D0E16AE552E16E0050E552E7CFD9FF6E
:108C50001200D9CFE6FFE1CFD9FF1A0EE126DF6A75
:108C6000010EDB6A030EDB6A040EDB6A050EDB6AAB
:108C7000060EDB6A070EDB6A080EDB6AD9500F0F9F
:108C8000E96EDACFEAFF6C0EEE6E6F0EEE6E670ED7
:108C9000EE6E730EEE6E2F0EEE6E300EEE6E320E28
:108CA000EE6E2F0EEE6E310EEE6EEE6EEE6AFC0E76
:108CB000DB50006E016AA00E266E050E276E00C006
:108CC0002BF001C02CF00DEC73F0070E26C0DBFF7B
:108CD000080E27C0DBFFFD0EDBCF00F0FE0EDBCF62
:108CE00001F0360E2B6E010E2C6E00C026F001C076
:108CF00027F059EC76F026C000F027C001F0300EC6
:108D00000024E76E140EE7CFDBFFFD0EDBCF00F093
:108D1000FE0EDBCF01F0360E2B6E010E2C6E00C066
:108D200026F001C027F059EC76F022C000F023C0F5
:108D300001F01F0E2B6E2C6A00C026F001C027F038
:108D400059EC76F026C000F027C001F0300E002468
:108D5000E76E150EE7CFDBFFFD0EDBCF00F0FE0E5A
:108D6000DBCF01F01F0E2B6E2C6A00C026F001C075
:108D700027F059EC76F022C000F023C001F00A0E73
:108D80002B6E2C6A00C026F001C027F059EC76F05B
:108D900026C000F027C001F0300E0024E76E170E49
:108DA000E7CFDBFFFD0EDBCF00F0FE0EDBCF01F0E7
:108DB0001F0E2B6E2C6A00C026F001C027F059EC64
:108DC00076F022C000F023C001F00A0E2B6E2C6A50
:108DD00000C026F001C027F059EC76F022C000F068
:108DE00023C001F0300E0024E76E180EE7CFDBFF42
:108DF000090EDB6A0A0EDB6A090EDBCF00F00A0EF1
:108E0000DBCF01F0FC0EDB50026E036A0250005C07
:108E10000350015832E2090EDBCF00F00A0EDBCF1F
:108E200001F0010ED89000360136E806FBE1F90E9C
:108E3000DB500024E96EFA0EDB500120EA6EEE6A88
:108E4000ED6A090EDBCF00F00A0EDBCF01F0010E58
:108E5000D89000360136E806FBE1F70EDB5000241F
:108E6000E96EF80EDB500120EA6EEE6AED6A090E3B
:108E7000DB2A0A0E01E3DB2ABFD7D9500F0FE66EBB
:108E8000000EDA20E66E42EC36F0E552E552E76E6F
:108E9000020EE7CFDBFFDB5003E0020EDB50C5D252
:108EA000F80EF36E0D0EF3CFDBFF010EF36E0E0E18
:108EB000F3CFDBFFDF5001E0B6D2D9500B0FE66EE7
:108EC000000EDA20E66E0D0EDBCFE6FF0E0EDBCFD6
:108ED000E6FF000EE66E0B0EE66E29EC37F0006E34
:108EE000060EE15E0050E76E020EE7CFDBFFDB50BF
:108EF00008E1D9500B0FE96EDACFEAFFEE50ED1022
:108F000003E1020EDB5091D2200E0B01005D02E066
:108F1000005105E1030EDB5002E1090E86D2010E7D
:108F2000F36E030EF3CFDBFF090EDB6A0A0EDB6A7A
:108F3000090EDBCF00F00A0EDBCF01F00D0EDBCF08
:108F400002F00E0EDBCF03F00250005C035001581C
:108F500001E368D2090EDBCF04F00A0EDBCF05F087
:108F60000B0EDBCF06F00C0EDBCF07F00650045CD7
:108F70000750055801E356D2090EDBCFE9FF0A0E70
:108F8000DBCFEAFF000EE9260B0EEA22EF502008A5
:108F90000CE0090EDBCFE9FF0A0EDBCFEAFF000E83
:108FA000E9260B0EEA22EF500FE1010EDF6E0D0EE7
:108FB000DBCF26F00E0EDBCF27F0090E26C0DBFF3D
:108FC0000A0E27C0DBFF1BD2090EE76EDBCFE9FFDD
:108FD0000A0EDBCFEAFFE750E926000EEA22000E78
:108FE000E9260B0EEA22EF50D00F006E080EE76E56
:108FF000090EDBCFE9FF0A0EDBCFEAFFE750E926D7
:10900000000EEA22000EE9260B0EEA22EF50D00FE6
:109010000A0DF3500024E76E010EE7CFDBFF0B0EC5
:10902000E76E090EDBCFE9FF0A0EDBCFEAFFE75060
:10903000E926000EEA22000EE9260B0EEA22EF5086
:10904000D00F006E0A0EE76E090EDBCFE9FF0A0EA5
:10905000DBCFEAFFE750E926000EEA22000EE92600
:109060000B0EEA22EF50D00F0A0DF3500024E66EEB
:10907000D950050FE96EDACFEAFFE552E750EE6E00
:10908000ED6A000EF36E010EDBCFF4FFF350F45CDB
:1090900001E29ED1180EF36E010EDBCFF4FFF35008
:1090A000F45C01E395D1050EDBCF00F0060EDBCFBB
:1090B00001F0000E005C000E015801E289D1050E9E
:1090C000DBCF02F0060EDBCF03F03C0E025C000E9D
:1090D000035801E37DD1050EDBCF02F0060EDBCF96
:1090E00003F0010EDB503C0DF3500224006EF450EF
:1090F0000320016E050E00C0DBFF060E01C0DBFF82
:10910000050EDBCF26F0060EDBCF27F0070EDBCFF8
:109110002BF0080EDBCF2CF059EC76F0040E26C0B5
:10912000DBFF016ADB34FE0B0136006EF90EDB500B
:109130000024E96EFA0EDB500120EA6EEE50ED10CD
:1091400001E046D10F0EE76E090EDBCF0AF00A0EE2
:10915000DBCF0BF0E7500A26000E0B22FB0EDB5094
:109160000A0DF3500F010A24E96E000E0B20EA6E7F
:10917000000EE9260B0EEA22EF50D00F086E096AA6
:10918000E80E0902F3CF09F0030E0802F350092696
:10919000E80E0802F3CF08F0F4500926100EE76E2F
:1091A000090EDBCF0CF00A0EDBCF0DF0E7500C26DA
:1091B000000E0D22FB0EDB500A0DF3500C24E96E5D
:1091C000000E0D20EA6E000EE9260B0EEA22EF508B
:1091D000D00F640D0850F324066E0950F420076E7A
:1091E000110EE76E090EDBCF0EF00A0EDBCF0FF08B
:1091F000E7500E26000E0F22FB0EDB500A0DF35037
:109200000E24E96E000E0F20EA6E000EE9260B0E0A
:10921000EA22EF50D00F0A0D0650F324046E0750D7
:10922000F420056E120EE76E090EDBCF10F00A0E69
:10923000DBCF11F0E7501026000E1122FB0EDB50A1
:109240000A0DF3501024E96E000E1120EA6E000E94
:10925000E9260B0EEA22EF50D00F00010424026E23
:10926000000E0520036E040E016ADB34FE0B01368E
:10927000006EF90EDB500024E96EFA0EDB5001207F
:10928000EA6E02C0EEFF03C0EDFF140EE76E090E9A
:10929000DBCF0AF00A0EDBCF0BF0E7500A26000EF8
:1092A0000B22FB0EDB500A0DF3500F010A24E96E6E
:1092B000000E0B20EA6E000EE9260B0EEA22EF509C
:1092C000D00F086E096AE80E0902F3CF09F0030E09
:1092D0000802F3500926E80E0802F3CF08F0F45014
:1092E0000926150EE76E090EDBCF0CF00A0EDBCF58
:1092F0000DF0E7500C26000E0D22FB0EDB500A0D80
:10930000F3500C24E96E000E0D20EA6E000EE926E3
:109310000B0EEA22EF50D00F640D0850F324066EB6
:109320000950F420076E160EE76E090EDBCF0EF023
:109330000A0EDBCF0FF0E7500E26000E0F22FB0EB9
:10934000DB500A0DF3500E24E96E000E0F20EA6E7A
:10935000000EE9260B0EEA22EF50D00F0A0D065040
:10936000F324046E0750F420056E170EE76E090E05
:10937000DBCF10F00A0EDBCF11F0E7501026000E05
:109380001122FB0EDB500A0DF3501024E96E000E83
:109390001120EA6E000EE9260B0EEA22EF50D00FE4
:1093A00000010424026E000E0520036E040E016A03
:1093B000DB34FE0B0136006EF70EDB500024E96E45
:1093C000F80EDB500120EA6E02C0EEFF03C0EDFF95
:1093D000FC0EDB04F36E040EDBCFF4FFF350F45C01
:1093E0000EE30D0EDBCF26F00E0EDBCF27F0090EBD
:1093F00026C0DBFF0A0E27C0DBFF010EDF6E380E32
:10940000E76E090EDBCF00F00A0EDBCF01F0E7506C
:109410000026000E0122090E00C0DBFF0A0E01C06B
:10942000DBFF86D547D5000E00D0006E1A0EE15C3A
:1094300002E2E16AE552E16E0050E552E7CFD9FF62
:1094400012000E01815107E10E01825104E10E016B
:10945000835101E175D0E66A240EE66EEBEC5DF017
:10946000E552E552E66A0A0E006E00C02CF081CE8D
:1094700027F0B1EC76F02750300FE66E69EC5EF025
:10948000E552E552E66A0A0E006E00C02CF081CE6D
:1094900027F0B1EC76F02350300FE66E69EC5EF009
:1094A000E552E552E66A3A0EE66E69EC5EF0E55288
:1094B000E552E66A0A0E006E00C02CF082CE27F05C
:1094C000B1EC76F02750300FE66E69EC5EF0E552B5
:1094D000E552E66A0A0E006E00C02CF082CE27F03C
:1094E000B1EC76F02350300FE66E69EC5EF0E55299
:1094F000E552E66A3A0EE66E69EC5EF0E552E55238
:10950000E66A0A0E006E00C02CF083CE27F0B1ECA4
:1095100076F02750300FE66E69EC5EF0E552E552CA
:10952000E66A0A0E006E00C02CF083CE27F0B1EC84
:1095300076F02350300FE66E69EC5EF0E552E552AE
:109540001200D9CFE6FFE1CFD9FF090EE1260E01C7
:109550007E5107E10E017F5104E10E01805101E1CE
:1095600075D0E66A240EE66EEBEC5DF0E552E5524E
:10957000E66A0A0E006E00C02CF07ECE27F0B1EC39
:1095800076F02750300FE66E69EC5EF0E552E5525A
:10959000E66A0A0E006E00C02CF07ECE27F0B1EC19
:1095A00076F02350300FE66E69EC5EF0E552E5523E
:1095B000E66A2F0EE66E69EC5EF0E552E552E66A69
:1095C0000A0E006E00C02CF07FCE27F0B1EC76F0D2
:1095D0002750300FE66E69EC5EF0E552E552E66A20
:1095E0000A0E006E00C02CF07FCE27F0B1EC76F0B2
:1095F0002350300FE66E69EC5EF0E552E552E66A04
:109600002F0EE66E69EC5EF0E552E552E66A0A0E50
:10961000006E00C02CF080CE27F0B1EC76F0275021
:10962000300FE66E69EC5EF0E552E552E66A0A0E2E
:10963000006E00C02CF080CE27F0B1EC76F0235005
:10964000300FE66E69EC5EF0E552E552090EE15C22
:1096500002E2E16AE552E16EE552E7CFD9FF12007E
:10966000D9CFE6FFE1CFD9FFFD0EDBCFE6FF640ED9
:10967000006E00C02CF0FE0EDBCF27F0B1EC76F0D0
:109680002750300FE66E69EC5EF0E552E552FD0EB4
:10969000DBCFE6FF640E016E01C02CF0FE0EDBCFC7
:1096A00027F0B1EC76F023C000F00A0E026E02C083
:1096B0002CF000C027F0B1EC76F02750300FE66EAA
:1096C00069EC5EF0E552E552FD0EDBCFE6FF0A0ED7
:1096D000006E00C02CF0FE0EDBCF27F0B1EC76F070
:1096E0002350300FE66E69EC5EF0E552E552E5522C
:1096F000E7CFD9FF1200D9CFE6FFE1CFD9FFFD0EAA
:10970000DBCF00F0FE0EDBCF01F00001800E011474
:1097100019E0FC0EDBCFE6FF2D0EE66E69EC5EF085
:10972000E552E55226682768FD0EDBCF2BF0FE0ED2
:10973000DBCF2CF033EC73F0FD0E24C0DBFFFE0E0C
:1097400025C0DBFFFC0EDBCFE6FFFD0EDBCF00F01C
:10975000FE0EDBCF01F0640E2B6E2C6A00C026F0EB
:1097600001C027F00DEC73F026C000F027C001F017
:10977000300E0024E66E69EC5EF0E552E552FC0E18
:10978000DBCFE6FFFD0EDBCF00F0FE0EDBCF01F0FE
:10979000640E2B6E2C6A00C026F001C027F00DEC81
:1097A00073F022C000F023C001F00A0E2B6E2C6A69
:1097B00000C026F001C027F00DEC73F026C000F0C9
:1097C00027C001F0300E0024E66E69EC5EF0E55231
:1097D000E552FC0EDBCFE6FFFD0EDBCF00F0FE0E08
:1097E000DBCF01F00A0E2B6E2C6A00C026F001C000
:1097F00027F00DEC73F022C000F023C001F0300E12
:109800000024E66E69EC5EF0E552E552E552E7CFE2
:10981000D9FF1200D9CFE6FFE1CFD9FFE66AFD0EEE
:10982000DBCF00F0FE0EDBCF01F0100E2B6E270E0B
:109830002C6E00C026F001C027F059EC76F026C04F
:1098400000F027C001F0300E0024E66E69EC5EF0F7
:10985000E552E552E66AFD0EDBCF00F0FE0EDBCFEF
:1098600001F0100E2B6E270E2C6E00C026F001C0EA
:1098700027F059EC76F022C000F023C001F0E80E8A
:109880002B6E030E2C6E00C026F001C027F059ECA1
:1098900076F026C000F027C001F0300E0024E66EFE
:1098A00069EC5EF0E552E552E66AFD0EDBCF00F0B2
:1098B000FE0EDBCF01F0E80E2B6E030E2C6E00C007
:1098C00026F001C027F059EC76F022C000F023C04A
:1098D00001F0640E2B6E2C6A00C026F001C027F048
:1098E00059EC76F026C000F027C001F0300E0024BD
:1098F000E66E69EC5EF0E552E552E66AFD0EDBCFFE
:1099000000F0FE0EDBCF01F0640E2B6E2C6A00C05F
:1099100026F001C027F059EC76F022C000F023C0F9
:1099200001F00A0E2B6E2C6A00C026F001C027F051
:1099300059EC76F026C000F027C001F0300E00246C
:10994000E66E69EC5EF0E552E552E66AFD0EDBCFAD
:1099500000F0FE0EDBCF01F00A0E2B6E2C6A00C069
:1099600026F001C027F059EC76F022C000F023C0A9
:1099700001F0300E0024E66E69EC5EF0E552E5522F
:10998000E552E7CFD9FF1200D9CFE6FFE1CFD9FFEB
:10999000070EE126D9CFE9FFDACFEAFF300EEE6EEF
:1099A000EE6EEE6EEE6EEE6EEE6AFC0EDBCFE6FF56
:1099B000D9CFE6FFDACFE6FFFD0EDBCFE6FFFE0EE6
:1099C000DBCFE6FFC7DB006E050EE15E0050060E42
:1099D000DB6A040EF36E060EDBCFF4FFF350F45C8B
:1099E0003FE2060EDB5002080BE1FC0EDB50020BDF
:1099F00007E0E66A2E0EE66E69EC5EF0E552E5528F
:109A0000060EDB5017E1D9CF00F0DACF01F0060ED9
:109A1000DB500F010024E96E000E0120EA6EEF50CA
:109A2000300808E1E66A200EE66E69EC5EF0E55269
:109A3000E55213D0E66AD9CF00F0DACF01F0060E76
:109A4000DB500F010024E96E000E0120EA6EEF509A
:109A5000E66E69EC5EF0E552E552060EDB2AB9D7F8
:109A6000070EE15C02E2E16AE552E16EE552E7CF02
:109A7000D9FF1200D9CFE6FFE1CFD9FF070EE126CB
:109A8000D9CFE9FFDACFEAFF300EEE6EEE6EEE6E62
:109A9000EE6EEE6EEE6AFA0EDBCFE6FFD9CFE6FF92
:109AA000DACFE6FFFD0EDBCFE6FFFE0EDBCFE6FFF3
:109AB00051DB006E050EE15E0050060EDB6A040EFF
:109AC000F36E060EDBCFF4FFF350F45C75E2060E86
:109AD000DB5002081DE1FA0EDB50020B19E0E66ACA
:109AE0002E0EE66EFB0EDBCFE6FFFC0EDBCFE6FFB5
:109AF000CEEC5EF0E552E552E552E552080E006EFE
:109B0000FC0EDBCFE7FF0050E726FC0EE7CFDBFFC4
:109B1000060EDB5029E1D9CF00F0DACF01F0060EB6
:109B2000DB500F010024E96E000E0120EA6EEF50B9
:109B300030081AE1E66A200EE66EFB0EDBCFE6FF88
:109B4000FC0EDBCFE6FFCEEC5EF0E552E552E552CF
:109B5000E552080E006EFC0EDBCFE7FF0050E72653
:109B6000FC0EE7CFDBFF25D0E66AD9CF00F0DACFD5
:109B700001F0060EDB500F010024E96E000E0120FB
:109B8000EA6EEF50E66EFB0EDBCFE6FFFC0EDBCF9E
:109B9000E6FFCEEC5EF0E552E552E552E552080EE6
:109BA000006EFC0EDBCFE7FF0050E726FC0EE7CF90
:109BB000DBFF060EDB2A83D7070EE15C02E2E16AD7
:109BC000E552E16EE552E7CFD9FF1200D9CFE6FFAB
:109BD000E1CFD9FF020EE66E9FEC60F0E552030E76
:109BE000E66E9FEC60F0E552E66A520EE66E030EFA
:109BF000E66E060EE66ECEEC5EF0E552E552E552FC
:109C0000E552E66A480EE66E030EE66E0E0EE66E4E
:109C1000CEEC5EF0E552E552E552E552E66A3D0EC5
:109C2000E66E030EE66E160EE66ECEEC5EF0E552C4
:109C3000E552E552E552020EE66E030EE66E1E0E8A
:109C4000E66EFD0EDBCFE6FFFE0EDBCFE6FF12DF9A
:109C5000006E050EE15E0050E66A250EE66E030E0C
:109C6000E66E460EE66ECEEC5EF0E552E552E5524B
:109C7000E552E552E7CFD9FF1200D9CFE6FFE1CF99
:109C8000D9FF020EE66E9FEC60F0E552030EE66E21
:109C90009FEC60F0E552E66A540EE66E030EE66E47
:109CA0000E0EE66ECEEC5EF0E552E552E552E55260
:109CB000E66A3D0EE66E030EE66E160EE66ECEEC1E
:109CC0005EF0E552E552E552E552030EE66EE66EB1
:109CD0001E0EE66EFD0EDBCFE6FFFE0EDBCFE6FFCF
:109CE000C9DE006E050EE15E0050E66AB00EE66E5B
:109CF000030EE66E460EE66ECEEC5EF0E552E552E1
:109D0000E552E552E552E7CFD9FF1200D9CFE6FF81
:109D1000E1CFD9FF020EE66E9FEC60F0E552030E34
:109D2000E66E9FEC60F0E552E66A480EE66E030EC2
:109D3000E66E060EE66ECEEC5EF0E552E552E552BA
:109D4000E552E66A3D0EE66E030EE66E0E0EE66E18
:109D5000CEEC5EF0E552E552E552E552030EE66EBA
:109D6000E66E160EE66EFD0EDBCFE6FFFE0EDBCFD7
:109D7000E6FF80DE006E050EE15E0050E66AEB0E47
:109D8000E66EE70EE66E000EE66E11EC5EF0E55252
:109D9000E552E552E552E552E7CFD9FF1200D9CF9F
:109DA000E6FFE1CFD9FF020EE66E9FEC60F0E552D0
:109DB000030EE66E9FEC60F0E552E66A700EE66E0A
:109DC000030EE66E060EE66ECEEC5EF0E552E55250
:109DD000E552E552E66A480EE66E030EE66E0E0E9A
:109DE000E66ECEEC5EF0E552E552E552E552E66AEB
:109DF0003D0EE66E030EE66E160EE66ECEEC5EF0DF
:109E0000E552E552E552E552020EE66E030EE66EAD
:109E10001E0EE66EFD0EDBCFE6FFFE0EDBCFE6FF8D
:109E200029DE006E050EE15E0050E552E7CFD9FF56
:109E30001200D9CFE6FFE1CFD9FF020EE66E9FEC0C
:109E400060F0E552030EE66E9FEC60F0E552E66AC4
:109E5000450EE66E030EE66E060EE66ECEEC5EF086
:109E6000E552E552E552E552E66A430EE66E030E10
:109E7000E66E0E0EE66ECEEC5EF0E552E552E55271
:109E8000E552E66A3D0EE66E030EE66E160EE66ECF
:109E9000CEEC5EF0E552E552E552E552E66A030E7D
:109EA000E66E1E0EE66EFD0EDBCFE6FFFE0EDBCF8E
:109EB000E6FFE0DD006E050EE15E0050E66AE80EAA
:109EC000E66EE70EE66E000EE66E11EC5EF0E55211
:109ED000E552E552E552E552E7CFD9FF1200D9CF5E
:109EE000E6FFE1CFD9FF020EE66E9FEC60F0E5528F
:109EF000030EE66E9FEC60F0E552E66A4F0EE66EEA
:109F0000030EE66E060EE66ECEEC5EF0E552E5520E
:109F1000E552E552E66A440EE66E030EE66E0E0E5C
:109F2000E66ECEEC5EF0E552E552E552E552E66AA9
:109F30003D0EE66E030EE66E160EE66ECEEC5EF09D
:109F4000E552E552E552E552020EE66E030EE66E6C
:109F50001E0EE66EFD0EDBCFE6FFFE0EDBCFE6FF4C
:109F600089DD006E050EE15E0050E66AE50EE66EE4
:109F7000E70EE66E000EE66E11EC5EF0E552E5527D
:109F8000E552E552E552E7CFD9FF1200D9CFE6FFFF
:109F9000E1CFD9FF020EE66E9FEC60F0E552030EB2
:109FA000E66E9FEC60F0E552E66A500EE66E030E38
:109FB000E66E060EE66ECEEC5EF0E552E552E55238
:109FC000E552E66A4F0EE66E030EE66E0E0EE66E84
:109FD000CEEC5EF0E552E552E552E552E66A3D0E02
:109FE000E66E030EE66E160EE66ECEEC5EF0E55201
:109FF000E552E552E552E66A030EE66E1E0EE66E87
:10A00000FD0EDBCFE6FFFE0EDBCFE6FF33DD006E9D
:10A01000050EE15E0050E66AE20EE66EE70EE66EC1
:10A02000000EE66E11EC5EF0E552E552E552E552A7
:10A03000E552E7CFD9FF1200D9CFE6FFE1CFD9FF34
:10A04000E652E66AFE0EDB500C0DF350040FE66E8E
:10A05000EBEC5DF0E552E552DF6A080EDF5C75E27D
:10A06000FD0EDB50010A36E0010A01E038D0BA0EDD
:10A07000036EEB0E046E000E056EFE0EDBCF06F0D7
:10A08000076A086A030ED890063607360836E806CF
:10A09000FAE103500624006E04500720016E0550BB
:10A0A0000820026EDFCF09F00A6A0B6A005009240B
:10A0B000F36E01500A20F46E02500B20F86EF4CFBC
:10A0C000F7FFF3CFF6FF0800F550E66E96EC5DF073
:10A0D000E55239D0E66A96EC5DF0E55234D0CA0E0E
:10A0E000036EEB0E046E000E056EFD0EDB50FE0FD0
:10A0F000066E076A086A030ED890063607360836D9
:10A10000E806FAE103500624006E04500720016EB1
:10A1100005500820026EDFCF09F00A6A0B6A005072
:10A120000924F36E01500A20F46E02500B20F86EE1
:10A13000F4CFF7FFF3CFF6FF0800F550E66E96EC8C
:10A140005DF0E55200D0DF2A88D7E552E552E7CF2F
:10A15000D9FF1200D9CFE6FFE1CFD9FF040EE126E7
:10A16000DE52DD6EFD0EDBCF00F0FE0EDBCF01F028
:10A170000001800E011437E0FA0EDB50010B33E0D2
:10A18000FD0EDBCF00F0FE0EDBCF01F0D8800150DA
:10A1900004E7190E005CFC0E01580AE2190EF36E7A
:10A1A000FD0EF3CFDBFFFC0EF36EFE0EF3CFDBFFF5
:10A1B000FB0EDBCFE9FFFC0EDBCFEAFF2D0EEF6ECF
:10A1C000010EDB0626682768FD0EDBCF2BF0FE0EA6
:10A1D000DBCF2CF033EC73F0020E24C0DBFF030E58
:10A1E00025C0DBFF21D0FD0EDBCF26F0FE0EDBCF3E
:10A1F00027F0020E26C0DBFF030E27C0DBFFD9507D
:10A20000020FE96EDACFEAFF0F0ED880EE54270E68
:10A21000ED540AE20F0EF36E020EF3CFDBFF270EB2
:10A22000F36E030EF3CFDBFFDF6A010EDB50DF5C62
:10A230003EE2020EDBCF00F0030EDBCF01F00A0E90
:10A240002B6E2C6A00C026F001C027F059EC76F086
:10A2500022C000F023C001F0300E0026000E0122C3
:10A26000030ED880DF54E76EFB0EDBCFE9FFFC0E58
:10A27000DBCFEAFFE750E926000EEA2200C0EFFF3D
:10A280000A0E006E016A020EDBCF26F0030EDBCF52
:10A2900027F000C02BF001C02CF059EC76F0020E34
:10A2A00026C0DBFF030E27C0DBFFDF2ABED7040E6C
:10A2B000E76EFB0EDBCFE9FFFC0EDBCFEAFFE750DA
:10A2C000E926000EEA22EF6A040EE15C02E2E16A8E
:10A2D000E552E16EE552E7CFD9FF1200D9CFE6FF94
:10A2E000E1CFD9FF020EE126FD0EDBCFDEFFDBCF93
:10A2F000DDFFDECFE9FFDDCFEAFFEF5005E0DF2A2B
:10A30000010E01E3DB2AF5D7DECF02F0DDCF03F04B
:10A31000FD0EDB50025C006EFE0EDB500358016E3A
:10A320000050006E020EE15C03E200D0E16AE552EB
:10A33000E16E0050E552E7CFD9FF1200D9CFE6FF1A
:10A34000E1CFD9FFE652010EE66E080EE66EEBECA9
:10A350005DF0E552E552080EDF6E480EDF5C07E265
:10A36000800EE66E96EC5DF0E552DF2AF6D7020E1F
:10A37000E66E080EE66EEBEC5DF0E552E552080E77
:10A38000DF6E480EDF5C06E2E66A96EC5DF0E552B1
:10A39000DF2AF7D7030EE66E080EE66EEBEC5DF0F3
:10A3A000E552E552080EDF6E480EDF5C06E2E66A13
:10A3B00096EC5DF0E552DF2AF7D7040EE66E080E44
:10A3C000E66EEBEC5DF0E552E552080EDF6E480EEE
:10A3D000DF5C07E2010EE66E96EC5DF0E552DF2AE7
:10A3E000F6D7010EDF6E050EDF5C0EE2DFCFE6FF73
:10A3F000080EE66EEBEC5DF0E552E552E66896EC91
:10A400005DF0E552DF2AEFD7010EDF6E050EDF5C4F
:10A410000EE2DFCFE6FF470EE66EEBEC5DF0E552B5
:10A42000E552E66896EC5DF0E552DF2AEFD7040EC0
:10A43000E66E190EE66EEBEC5DF0E552E552E6686D
:10A44000DD0EE66EE70EE66E000EE66E11EC5EF0D7
:10A45000E552E552E552E552020EE66E0A0EE66E50
:10A46000EBEC5DF0E552E552E66AFC0EDBCFE6FF71
:10A47000FD0EDBCFE6FFFE0EDBCFE6FF11EC5EF05C
:10A48000E552E552E552E552E552E552E7CFD9FFF4
:10A490001200D9CFE6FFE1CFD9FF040EE126010E6D
:10A4A000E66EE3EC71F0E552010805E10E01A651FC
:10A4B000010801E20DD2030EE66EC9EC71F0E5521F
:10A4C000010808E0040EE66EC9EC71F0E5520108DF
:10A4D00001E010D1030EE66EE3EC71F0E5520108E5
:10A4E00068E1050E0E01E76E9319E8AE02D0E7347D
:10A4F00002D0E750935D0AE3020E0E01925D06E082
:10A500000E01936B0E01030EAB6F53D00E019351EE
:10A5100007E1020E0E01925D03E1FFC093FE49D0F8
:10A52000020E0E01925D03E10E01930742D00E016F
:10A530009329006E016A00BE0168020E00C0DBFFB5
:10A54000030E01C0DBFF020EDBCF00F0030EDBCFFA
:10A5500001F0060E005C000E015816E2020EDBCF81
:10A56000E9FF030EDBCFEAFF3A0EE9260E0EEA22E0
:10A57000EF5004E0020EDBCF93FE06D0020EDB2A82
:10A58000030E01E3DB2ADFD793CEE9FFEA6AE9BED7
:10A59000EA683A0EE9260E0EEA22EF50020806E0BB
:10A5A000030E0E01925D02E0010E926F0E01030E8A
:10A5B000AB6F040EE66EE3EC71F0E552010801E0CA
:10A5C00097D00E0193513FE1020E0E01925D3BE0E8
:10A5D000050EF36E020EF3CFDBFF030EDB6AD950DC
:10A5E000020FE96EDACFEAFF000ED880EE54000EBB
:10A5F000ED5413E2020EDBCFE9FF030EDBCFEAFFDF
:10A600003A0EE9260E0EEA22EF5001E006D0020EC5
:10A61000DB06030E01E2DB06E2D7020EDBCF93FE80
:10A6200093CEE9FFEA6AE9BEEA683A0EE9260E0E21
:10A63000EA22EF50020803E00E01010E926F0E01B4
:10A64000030EAB6F55D00001FF510E01935D07E380
:10A65000020E0E01925D03E10E01936B49D0020ED2
:10A660000E01925D03E10E01932B42D00E01930582
:10A67000006E016A00BE0168020E00C0DBFF030E1F
:10A6800001C0DBFFD950020FE96EDACFEAFF000EFE
:10A69000D880EE54000EED5413E2020EDBCFE9FF3A
:10A6A000030EDBCFEAFF3A0EE9260E0EEA22EF5048
:10A6B00001E006D0020EDB06030E01E2DB06E2D764
:10A6C000020EDBCF93FE93CEE9FFEA6AE9BEEA68A9
:10A6D0003A0EE9260E0EEA22EF50020806E0030EBB
:10A6E0000E01925D02E0010E926F0E01030EAB6F40
:10A6F000F9D88BD0E66AC9EC71F0E552010808E0A0
:10A70000020EE66EC9EC71F0E552010801E07DD061
:10A71000020E0E01925D02E10E01936BE66AE3EC1C
:10A7200071F0E552010830E1040E0E01925D15E171
:10A73000926B93CEE9FFEA6AE9BEEA683A0EE9262F
:10A740000E0EEA22EF50020807E0925103E0040ED9
:10A75000925D02E1010E926F14D0922B93CEE9FF2D
:10A76000EA6AE9BEEA683A0EE9260E0EEA22EF50DE
:10A77000020807E0925103E0040E925D02E1010E2F
:10A78000926F0E01030EAB6F020EE66EE3EC71F0FA
:10A79000E552010833E10E01925119E1020E925D7A
:10A7A00016E0040E926F93CEE9FFEA6AE9BEEA680A
:10A7B0003A0EE9260E0EEA22EF50020807E0925107
:10A7C00003E0040E925D02E1030E926F14D0920733
:10A7D00093CEE9FFEA6AE9BEEA683A0EE9260E0E70
:10A7E000EA22EF50020807E0925103E0040E925D66
:10A7F00002E1030E926F0E01030EAB6F020E0E010B
:10A80000925D02E10E01936B6DD80A0E006E00C0DE
:10A810002CF02AC127F0B1EC76F0235015E10E019F
:10A82000AA5111E10E0192510EE10E01AB5105E169
:10A830000E01010E926F56D803D054D80E01AB070B
:10A840000E01010EAA6F21D00A0E006E00C02CF07E
:10A850002AC127F0B1EC76F02350050814E10E016F
:10A86000AA5110E10E0192050DE10E01AB5104E178
:10A870000E01926B37D803D035D80E01AB070E010D
:10A88000010EAA6F02D00E01AA6BE66AE66A1CEC02
:10A8900050F0E552E5520A0E006E00C02CF02AC1BD
:10A8A00027F0B1EC76F02350050803E1A1EC4AF063
:10A8B0000FD00A0E016E01C02CF02AC127F0B1ECB6
:10A8C00076F023C000F0050E005C02E221EC4AF0B5
:10A8D000040EE15C02E2E16AE552E16EE552E7CF87
:10A8E000D9FF1200D9CFE6FFE1CFD9FFE652DF6AE8
:10A8F000060EDF5C0DE20E01935103E1050EDF5CF5
:10A9000005E2DFCFE6FF9FEC60F0E552DF2AF0D7EB
:10A91000A1EC4AF0E66A010EE66E77EC60F0E552D3
:10A92000E5520E019251040A01E1D8D3070A01E170
:10A930000ED1010A01E10AD1020A01E1C9D0010ADE
:10A9400002E021EF59F00E01020EAA6F93CEE9FF4B
:10A95000EA6AE9BEEA68D890E936EA36220EE926C4
:10A960000E0EEA22EE50ED1001E19AD093CEE9FFEF
:10A97000EA6AE9BEEA683A0EE9260E0EEA22EF50CC
:10A98000030A01E178D0010A76E0050A5FE0010AD6
:10A990005DE00D0A46E0010A2FE0030A18E0010A13
:10A9A00001E07ED093CEE9FFEA6AE9BEEA68D8907A
:10A9B000E936EA36220EE9260E0EEA22EECFE6FF4F
:10A9C000EFCFE6FFCFEC4EF0E552E55269D093CEE3
:10A9D000E9FFEA6AE9BEEA68D890E936EA36220E6B
:10A9E000E9260E0EEA22EECFE6FFEFCFE6FF19ECE6
:10A9F0004FF0E552E55254D093CEE9FFEA6AE9BE42
:10AA0000EA68D890E936EA36220EE9260E0EEA22E6
:10AA1000EECFE6FFEFCFE6FF6FEC4FF0E552E552E9
:10AA20003FD093CEE9FFEA6AE9BEEA68D890E936FA
:10AA3000EA36220EE9260E0EEA22EECFE6FFEFCF2F
:10AA4000E6FFC6EC4FF0E552E5522AD093CEE9FF7F
:10AA5000EA6AE9BEEA68D890E936EA36220EE926C3
:10AA60000E0EEA22EECFE6FFEFCFE6FF86EC4EF0C9
:10AA7000E552E55215D093CEE9FFEA6AE9BEEA68ED
:10AA8000D890E936EA36220EE9260E0EEA22EECFFB
:10AA9000E6FFEFCFE6FF3DEC4EF0E552E55200D089
:10AAA0000E01935114E0050EE66EE66AEBEC5DF0E4
:10AAB000E552E552E66A400EE66EE80EE66E000EDE
:10AAC000E66E11EC5EF0E552E552E552E552B9D37F
:10AAD0000E01020EAA6F93CEE9FFEA6AE9BEEA68A8
:10AAE000D890E936EA36220EE9260E0EEA22EE501A
:10AAF000ED1014E093CEE9FFEA6AE9BEEA68D89067
:10AB0000E936EA362E0EE9260E0EEA22EECFE6FFF1
:10AB1000EFCFE6FFE6EC4DF0E552E5520E01935122
:10AB200014E0050EE66EE66AEBEC5DF0E552E552E8
:10AB3000E66A3C0EE66EE80EE66E000EE66E11EC7E
:10AB40005EF0E552E552E552E5527BD37AD3020E30
:10AB5000E66EE66AEBEC5DF0E552E55293CEE9FF76
:10AB6000EA6AE9BEEA683A0EE9260E0EEA22EF50DA
:10AB7000030A4FE0010A4DE0050A43E0010A41E003
:10AB80000D0A31E0010A21E0030A11E0010A01E0A7
:10AB900048D0E66A390EE66EE80EE66E000EE66E06
:10ABA00011EC5EF0E552E552E552E5523AD0E66A24
:10ABB000360EE66EE80EE66E000EE66E11EC5EF006
:10ABC000E552E552E552E5522CD0E66A330EE66EC8
:10ABD000E80EE66E000EE66E11EC5EF0E552E55210
:10ABE000E552E5521ED0E66A2F0EE66EE80EE66EDE
:10ABF000000EE66E11EC5EF0E552E552E552E552CC
:10AC000010D0E66A480EE66E69EC5EF0E552E55259
:10AC100008D0E66A540EE66E69EC5EF0E552E55245
:10AC200000D0E66A280EE66EE80EE66E000EE66ECE
:10AC300011EC5EF0E552E552E552E55293CEE9FFA4
:10AC4000EA6AE9BEEA68D890E936EA36470EE926AC
:10AC50000E0EEA22EE50ED1001E1C5D093CEE9FFD1
:10AC6000EA6AE9BEEA683A0EE9260E0EEA22EF50D9
:10AC7000070A01E198D0010A01E195D0050A01E136
:10AC800092D0010A01E18FD0080A68E0020A4EE082
:10AC9000030A27E0020A01E0A5D0E66A93CEE9FFA5
:10ACA000EA6AE9BEEA68D890E936EA36470EE9264C
:10ACB0000E0EEA22EECFE6FFEFCFE6FFC4EC4CF03B
:10ACC000E552E552E552E66A250EE66EE80EE66EBE
:10ACD000000EE66E11EC5EF0E552E552E552E552EB
:10ACE00081D0010EE66E93CEE9FFEA6AE9BEEA681A
:10ACF000D890E936EA36470EE9260E0EEA22EECF64
:10AD0000E6FFEFCFE6FFC4EC4CF0E552E552E5522A
:10AD1000E66A220EE66EE80EE66E000EE66E11ECB6
:10AD20005EF0E552E552E552E5525CD0020EE66E69
:10AD300093CEE9FFEA6AE9BEEA68D890E936EA36D6
:10AD4000470EE9260E0EEA22EECFE6FFEFCFE6FF32
:10AD5000C4EC4CF0E552E552E55244D0020EE66EEA
:10AD600093CEE9FFEA6AE9BEEA68D890E936EA36A6
:10AD7000470EE9260E0EEA22EECFE6FFEFCFE6FF02
:10AD8000C4EC4CF0E552E552E552E66A1F0EE66E61
:10AD9000E80EE66E000EE66E11EC5EF0E552E5524E
:10ADA000E552E5521FD0030EE66E93CEE9FFEA6A44
:10ADB000E9BEEA68D890E936EA36470EE9260E0E73
:10ADC000EA22EECFE6FFEFCFE6FFC4EC4CF0E5520F
:10ADD000E552E552E66A7B0EE66E69EC5EF0E552FE
:10ADE000E55200D00DD0E66A1C0EE66EE80EE66E67
:10ADF000000EE66E11EC5EF0E552E552E552E552CA
:10AE0000030EE66EE66AEBEC5DF0E552E55293CE9A
:10AE1000E9FFEA6AE9BEEA683A0EE9260E0EEA227E
:10AE2000EF50030A4FE0010A4DE0050A43E0010A32
:10AE300041E00D0A31E0010A21E0030A11E0010AB4
:10AE400001E048D0E66A390EE66EE80EE66E000EC6
:10AE5000E66E11EC5EF0E552E552E552E5523AD06D
:10AE6000E66A360EE66EE80EE66E000EE66E11EC51
:10AE70005EF0E552E552E552E5522CD0E66A330E1B
:10AE8000E66EE80EE66E000EE66E11EC5EF0E55240
:10AE9000E552E552E5521ED0E66A2F0EE66EE80E48
:10AEA000E66E000EE66E11EC5EF0E552E552E552FC
:10AEB000E55210D0E66A480EE66E69EC5EF0E552A7
:10AEC000E55208D0E66A540EE66E69EC5EF0E55293
:10AED000E55200D0E66A150EE66EE80EE66E000E4C
